:020000040000fa
:080000000002040000000000f2
:020000040000fa
:04000800c80200002a
:020000040000fa
:04000c00c802000026
:020000040000fa
:04001000c802000022
:020000040000fa
:04001400c80200001e
:020000040000fa
:04001800c80200001a
:020000040000fa
:04001c00c802000016
:020000040000fa
:04002000c802000012
:020000040000fa
:04002400c80200000e
:020000040000fa
:04002800c80200000a
:020000040000fa
:04002c00c802000006
:020000040000fa
:04003000c802000002
:020000040000fa
:04003400c8020000fe
:020000040000fa
:04003800c8020000fa
:020000040000fa
:04003c00c8020000f6
:020000040000fa
:04004000c8020000f2
:020000040000fa
:04004400c8020000ee
:020000040000fa
:04004800c8020000ea
:020000040000fa
:04004c00c8020000e6
:020000040000fa
:04005000c8020000e2
:020000040000fa
:04005400c8020000de
:020000040000fa
:04005800c8020000da
:020000040000fa
:04005c00c8020000d6
:020000040000fa
:04006000c8020000d2
:020000040000fa
:04006400c8020000ce
:020000040000fa
:04006800c8020000ca
:020000040000fa
:04006c00c8020000c6
:020000040000fa
:04007000c8020000c2
:020000040000fa
:04007400c8020000be
:020000040000fa
:04007800c8020000ba
:020000040000fa
:04007c00c8020000b6
:020000040000fa
:04008000c8020000b2
:020000040000fa
:04008400c8020000ae
:020000040000fa
:04008800c8020000aa
:020000040000fa
:04008c00c8020000a6
:020000040000fa
:04009000c8020000a2
:020000040000fa
:04009400c80200009e
:020000040000fa
:04009800c80200009a
:020000040000fa
:04009c00c802000096
:020000040000fa
:0400a000c802000092
:020000040000fa
:0400a400c80200008e
:020000040000fa
:0400a800c80200008a
:020000040000fa
:0400ac00c802000086
:020000040000fa
:0400b000c802000082
:020000040000fa
:0400b400c80200007e
:020000040000fa
:0400b800c80200007a
:020000040000fa
:0400bc00c802000076
:020000040000fa
:0400c000c802000072
:020000040000fa
:0400c400c80200006e
:020000040000fa
:0400c800c80200006a
:020000040000fa
:0400cc00c802000066
:020000040000fa
:0400d000c802000062
:020000040000fa
:0400d400c80200005e
:020000040000fa
:0400d800c80200005a
:020000040000fa
:0400dc00c802000056
:020000040000fa
:0400e000c802000052
:020000040000fa
:0400e400c80200004e
:020000040000fa
:0400e800c80200004a
:020000040000fa
:0400ec00c802000046
:020000040000fa
:0400f000c802000042
:020000040000fa
:0400f400c80200003e
:020000040000fa
:0400f800c80200003a
:020000040000fa
:0400fc00c802000036
:020000040000fa
:04010000c802000031
:020000040000fa
:04010400c80200002d
:020000040000fa
:04010800c802000029
:020000040000fa
:04010c00c802000025
:020000040000fa
:04011000c802000021
:020000040000fa
:04011400c80200001d
:020000040000fa
:04011800c802000019
:020000040000fa
:04011c00c802000015
:020000040000fa
:04012000c802000011
:020000040000fa
:04012400c80200000d
:020000040000fa
:04012800c802000009
:020000040000fa
:04012c00c802000005
:020000040000fa
:04013000c802000001
:020000040000fa
:04013400c8020000fd
:020000040000fa
:04013800c8020000f9
:020000040000fa
:04013c00c8020000f5
:020000040000fa
:04014000c8020000f1
:020000040000fa
:04014400c8020000ed
:020000040000fa
:04014800c8020000e9
:020000040000fa
:04020800c802000028
:020000040000fa
:04020c00c802000024
:020000040000fa
:04021000c802000020
:020000040000fa
:04021400c80200001c
:020000040000fa
:04021800c802000018
:020000040000fa
:04021c00c802000014
:020000040000fa
:04022000c802000010
:020000040000fa
:04022400c80200000c
:020000040000fa
:04022800c802000008
:020000040000fa
:04022c00c802000004
:020000040000fa
:04023000c802000000
:020000040000fa
:04023400c8020000fc
:020000040000fa
:04023800c8020000f8
:020000040000fa
:04023c00c8020000f4
:020000040000fa
:04024000c8020000f0
:020000040000fa
:04024400c8020000ec
:020000040000fa
:04024800c8020000e8
:020000040000fa
:04024c00c8020000e4
:020000040000fa
:04025000c8020000e0
:020000040000fa
:04025400c8020000dc
:020000040000fa
:04025800c8020000d8
:020000040000fa
:04025c00c8020000d4
:020000040000fa
:04026000c8020000d0
:020000040000fa
:04026400c8020000cc
:020000040000fa
:04026800c8020000c8
:020000040000fa
:04026c00c8020000c4
:020000040000fa
:04027000c8020000c0
:020000040000fa
:04027400c8020000bc
:020000040000fa
:04027800c8020000b8
:020000040000fa
:04027c00c8020000b4
:020000040000fa
:04028000c8020000b0
:020000040000fa
:04028400c8020000ac
:020000040000fa
:04028800c8020000a8
:020000040000fa
:04028c00c8020000a4
:020000040000fa
:04029000c8020000a0
:020000040000fa
:04029400c80200009c
:020000040000fa
:04029800c802000098
:020000040000fa
:04029c00c802000094
:020000040000fa
:0402a000c802000090
:020000040000fa
:0402a400c80200008c
:020000040000fa
:0402a800c802000088
:020000040000fa
:0402ac00c802000084
:020000040000fa
:0402b000c802000080
:020000040000fa
:0402b400c80200007c
:020000040000fa
:0402b800c802000078
:020000040000fa
:0402bc00c802000074
:020000040000fa
:0402c000c802000070
:020000040000fa
:0402c400c80200006c
:020000040000fa
:0402c800c802000068
:020000040000fa
:0402cc00c802000064
:020000040000fa
:0402d000c802000060
:020000040000fa
:0402d400c80200005c
:020000040000fa
:0402d800c802000058
:020000040000fa
:0402dc00c802000054
:020000040000fa
:0402e000c802000050
:020000040000fa
:0402e400c80200004c
:020000040000fa
:0402e800c802000048
:020000040000fa
:0402ec00c802000044
:020000040000fa
:0402f000c802000040
:020000040000fa
:0402f400c80200003c
:020000040000fa
:0402f800c802000038
:020000040000fa
:0402fc00c802000034
:020000040000fa
:04030000c80200002f
:020000040000fa
:04030400c80200002b
:020000040000fa
:04030800c802000027
:020000040000fa
:04030c00c802000023
:020000040000fa
:04031000c80200001f
:020000040000fa
:04031400c80200001b
:020000040000fa
:04031800c802000017
:020000040000fa
:04031c00c802000013
:020000040000fa
:04032000c80200000f
:020000040000fa
:04032400c80200000b
:020000040000fa
:04032800c802000007
:020000040000fa
:04032c00c802000003
:020000040000fa
:04033000c8020000ff
:020000040000fa
:04033400c8020000fb
:020000040000fa
:04033800c8020000f7
:020000040000fa
:04033c00c8020000f3
:020000040000fa
:04034000c8020000ef
:020000040000fa
:04034400c8020000eb
:020000040000fa
:04034800c8020000e7
:020000040000fa
:10040000cf6e21000e7f22000e0188000000000048
:10041000000020000000e000020032000001200087
:100420002002880014000700a50007000000e0007b
:1004300003003a00e0e3230001002000020037003f
:100440000000200001002000810f70000100320038
:1004500014000700000020000000e000020032004d
:100460000000020000000000e42c02000000000078
:100470000040da000000fe004440a9008023200074
:100480000000e0000300320000002000a00188000e
:100490004440a800000006008a1f78008b1f7800e7
:1004a0000000060091018800800478000000eb0045
:1004b0001a003700e284440032a0b4009905ba0063
:1004c000e284440032a0b4009906ba00e2844400f9
:1004d00032a0b4000006eb00476fde00fd07b2005b
:1004e000636ce10003003a00ebff07000000eb0043
:1004f0000a003700606ce10004003a00005deb0088
:100500008b05e900fdff3e00040037006168e10053
:10051000010032000086eb000b00070019c7ba008b
:100520001905ba000e04e00003003a000a00e000da
:10053000e0ff3a0000000600fe07b2009e018800be
:100540008a047800f5ff3700395dba008b05e900b1
:100550000c003200295dba008b05e900080032006a
:100560000c00e00003003a00e284440032a0b40032
:10057000f5ff370019ddba008b05e900faff3a00f4
:100580008904e800e184440032a0b40000000600c1
:100590000040da000000fe006900e10004003500c0
:1005a0006d00e100030034000002b10001003200e0
:1005b00000000500100005000a00fa00e20f5000dc
:1005c00034003e0050b78000e10f500003003200bd
:1005d000e20f500011003a000c0037000322200007
:1005e0000300e00001003a000040da002002e200cf
:1005f000020035002822ef0021e2a8002342ab00d0
:100600000d003a002342a8000b003700032320000e
:100610000300e00001003a000040da003002e2008e
:10062000020035003822ef0031e2a8003342ab006f
:1006300001003a003342a800820178000b00370025
:100640003102fb00e10f500004003a002322ab000e
:10065000feff3a0024118800030037003322ab006c
:10066000feff3a00a41188008301e9000300e000c6
:10067000f3ff3a00e10f500003003a002302ab0001
:10068000feff32000b0037003302ab00feff3200ea
:100690000800370033002000b3bf9f00c0bf9f0099
:1006a000d1bf9f00e2bf9f006a805700e50b0700a3
:1006b0006fb99700020078000080fa000000060081
:1006c0000000050003f0a200889fbe008a9fbe00c4
:1006d0008c1f7800f9000700000133006450e1002e
:1006e0004f0032006420e1005200320003826c00af
:1006f00007003b000905d0000306d000820f54001c
:100700000c065d0002003900020032008901780009
:10071000030678008582550004003d000003fd00bb
:100720008103fd008502ea008b854200840f720080
:1007300002003b0060001000e08018006011b8006b
:100740000005eb007a28e1000a0039000600780075
:10075000c75ddd00f707b200878075002d00370008
:10076000828171000a017800610560008180d100fa
:100770000080d3008502e900f9ff3b000604400039
:100780008784480002003b0060041400e0841c00e1
:100790000988a300070032008a81710082817100fc
:1007a000610164008904d1000884d3008b05e8004e
:1007b000170037000978a30013003a000b00e0008f
:1007c000130034008b05e9000804440089844c00c0
:1007d0000a4474000978a3000d003a000b00e00001
:1007e000070034008b05e9000804440089844c00ac
:1007f00001003a000b0020000978a300f7ff320047
:100800000001eb0002003700828171000a017800cc
:100810006f0007000cf0a70001f0a000b80037003f
:100820006420e10002003a00838f6c00b8003300be
:100830000801be000200be00b10037000081eb00dd
:1008400041013700889fbe008a9fbe008c1f780040
:100850009a000700a100330003866c006450e10099
:100860002e0032006420e100330032006150e100cc
:100870002f0032006120e1003100320085855500f3
:10088000eb07b00009002000080420000500370035
:100890000804440089844c000a0031000603430028
:1008a00087834b000001530081815b00f8ff330018
:1008b0000203be000800a0000804440089844c0024
:1008c000f6ff3900c639dd008301730001003200f4
:1008d000130020008904d1000884d3000998a300e4
:1008e000050032000800a7000300a0008904d10021
:1008f0000884d3008b05e8008904d1000884d30064
:100900000001eb000281d2003100070001f0a100dc
:100910000cf0a70001f0a000790037006420e1008e
:100920007b0032000801be000200be00f7ff370066
:100930006120e100760032006000b800f3ff37006c
:100940000000200001f82700f0ff37000001be0082
:10095000450007000470a70003f0a1006509b1007d
:10096000160032000d0035006828e1000600350051
:10097000f0ff2f00f1ff27000300e00013003b0011
:1009800001002800000005000000400081804800b0
:100990008502e900fcff3a0008003700f88f4200aa
:1009a00002003c008000eb00000005008100d10047
:1009b0000080d3008502e800fcff3a000300e0005d
:1009c00002003b0060001000e080180000000600fc
:1009d00081002000618055000b003d000b002000cd
:1009e00061fe2f000100e1001d00340082817100d2
:1009f000610164008904d1000884d3000000e8008c
:100a0000faff3a00710020006100640003007000ea
:100a1000020060000900320061044400e0844c00e0
:100a20000988a500050032008b05e8006808e10090
:100a300002003a008904d1000884d300f20f20009c
:100a40000258e10005003d00c75ddd00f907b20076
:100a50008980750008007800000006000bf8270068
:100a60008b00780000000500c70ade00f107b20025
:100a7000f50fb20008003200e1cf42000200320060
:100a80000170a00024000500810f700001003200f9
:100a90000408050044000500810f700002003a00c0
:100aa000140005008502e9000000400081c04800f4
:100ab000fcff3b000170a000240005000004be0004
:100ac000e9ff07000003be000405be000200be00ef
:100ad000e5ff0700844f7500000006000200be001d
:100ae0006450e100050036006420e1000200360099
:100af0000968a30001003a000800be000160a000e0
:100b00004f0678004f05be004f04be0000000600ef
:100b1000f0ff2f00f1ff2700f9ff3700889fbe008c
:100b20008a9fbe008c9fbe007a0207008504780071
:100b30000005be006420e10049003e006220e100a3
:100b400003003200090035000bf8a3004400320016
:100b50000bf8a3000800320010022000904088002b
:100b6000f0ff2f00f1ff27003d00370001f82f00b4
:100b7000000020003a0037003d000700d1fe0700ca
:100b80000006be000a00be00324f200053f32300cf
:100b90006f020700060034000c00be00340007009e
:100ba000c8fe07000006be000a00be0002003700b3
:100bb0008904e9000c00be002d0007002e0007008c
:100bc0002b000700c0fe07000001be000c00be00a5
:100bd0001cff07000005be000001be002600070044
:100be0000006be00a2f32300430d2c00b6fe070052
:100bf000809fbe000c00be00d2e32700d3f02b0084
:100c00001d0007004f01be000eff07000006be00da
:100c10000a01be00180007000a01be00aafe070074
:100c20000006be006148b9004b0207000005be0087
:100c300032082800e3952b000f0007000c01be00ce
:100c4000a1fe07000006be000a00be000200280048
:100c500013f32300080007000c01be009afe0700f2
:100c60004f06be004f05be004f04be000000060048
:100c700003f0230002000500889fbe008a9fbe008b
:100c80008c1f78008dff070094ff330003866c00f3
:100c90006450e100240032006420e10027003200ab
:100ca0006150e100220032006120e10021003200a9
:100cb0008b854200eb07b1000134b800003ab80060
:100cc0000804420089844a00013ab8000030b800a4
:100cd0008880400009014a00040033000000400001
:100ce00081804800020149008b05e900c909dd0047
:100cf000830170000100320013002000c814de00e0
:100d00004814dd004709de001200b200c808de000a
:100d1000088470002eff070001f0a1000cf0a7006e
:100d200001f0a00076ff37006120e10078ff32007b
:100d30000801be000200be00f7ff37006150e1006d
:100d4000fcff3a0072ff3700889fbe008a9fbe00fa
:100d50008c9fbe00820578000004be0042ff0700a1
:100d60000800be006420e1000700390002003a00dc
:100d7000f1ff2700f0ff2f000160a0001202200009
:100d800092408800550037006120e10003003a00de
:100d90000b00a70001f823005000370001f0a1006c
:100da0000200210093642400e70107000800be0050
:100db00004003500b2fd2000930c2400e901070077
:100dc0000004be000005eb000b00a6004f0dde0086
:100dd00001f0a1000004be0032982f0023ea230096
:100de000a5ff07000001eb0003f023000b00a700a4
:100df00003f8230034fe0700d4fe07000000a7001c
:100e00000a00a200d40107000b00e000030032003a
:100e10000200200003f023002afe070001f0a200d8
:100e20000006be00020020009304240092ff070089
:100e30000801be0024fe0700809fbe000c00be001b
:100e400022a22a00d3a723008bff07004f01be0078
:100e50001dfe07000004be0001f0a10002002000fa
:100e600003982300b80107000800be0019003500f0
:100e70000001be0080ff07000006be00b2c52900c9
:100e8000e36223007cff070022222b00f3942b0057
:100e90000dfe07000c01be0077ff0700e27328007b
:100ea00083c0230008fe07000c01be0072ff07008c
:100eb00042aa2a00a3e22b0003fe07000c01be0099
:100ec0006dff07000801be006bff07000801be00b0
:100ed000fdfd07000a00a70001f0a2004f06be00ba
:100ee0004f05be004f04be00000006000001eb00ed
:100ef00095ff3700889fbe008a9fbe000004be0099
:100f0000d9fe07000800be006420e1000700390098
:100f100002003a00f1ff2700f0ff2f000160a0005f
:100f200012022000924088004c00370001f0a1001e
:100f300002802000935c2400830107000800be00ab
:100f400004003500b2fd2000930424008501070051
:100f50000004be0032982f0023f2230046ff070052
:100f60000200200003f0230001f0a70003f0a0001e
:100f7000d5fd070075fe0700801f78007601070089
:100f800001f0a2000005be000200200093fc230037
:100f900039ff07000801be00cbfd0700809fbe009f
:100fa0000a00be0022a22a00d39f230032ff0700be
:100fb0004f01be00c4fd07000004be0001f0a10007
:100fc00002002000039823006101070003003d0098
:100fd0000000200001f82300180037000800be00c0
:100fe0000001be0024ff07000005be00823b230075
:100ff00043dc2b0020ff07000801be001eff070096
:101000000801be00b0fd07000004be000a00be00db
:1010100052372300f3c1230017ff0700f27a2b0099
:10102000b3ed2b00a8fd07000a01be0012ff070068
:101030000200200003f82300a3fd07004f00a600d4
:10104000030037000801be0003f0a20002003700d1
:101050000001be000800be00fafd07004f05be00fb
:101060004f04be0000000600889fbe008a9fbe009d
:1010700030044200b0844a0030054b0090854b009c
:101080006000b1000898be000a90be000440e10074
:1010900005c8e10006d0e10007d8e10002003100f8
:1010a000680040001008e8004f05be004f04be0075
:1010b00000000600889fbe008a9fbe003004be006c
:1010c0002005be000418540005985c0006185d0059
:1010d00007985d00110020000440e10005c8e10010
:1010e00006d0e10007d8e100010039008000eb00e4
:1010f000108810004f05be004f04be00000006001f
:101100001200fa00889fbe008a9fbe008c9fbe001e
:10111000e0b79f00f1b79f0082bf9f0093bf9f0081
:101120000605be000404be000000eb00d0b79f001f
:10113000c0b79f00b0b79f00a0b79f0090b79f00b7
:101140000006eb005fb19700cfb09700820141002d
:101150003fb097000200e00004003d0037000700a8
:101160007e805700c0ff07000300370033000700f0
:101170007e805700cfff0700dfb697000d00e0002c
:101180000c0035006fb29700ffb297000fbb9700bd
:101190009fbb970010002000010020006011b800e4
:1011a0000002720081827200020373008383730065
:1011b0001b0007000c06e80001042000810f560008
:1011c000e0ff3a000d00e00004003d000802be0010
:1011d0000a03be007e805700a3ff07005fa89700a8
:1011e0000000e00005003a001fb29700afb2970080
:1011f0003fb39700cfb39700090007006fb0970087
:10120000ffb097000fb997009fb997004f06be0037
:101210004f05be004f04be000080fa00000006002b
:101220000100070000000600a4b79f00b5b79f00ab
:10123000c6b79f00d7b79f00000006004f09de0029
:1012400082817100b3b79f004f01de0081804000b2
:1012500082807000a1b79f008fb097004f09de0019
:10126000000040000200700090b79f007fa8970028
:101270004f01de00818040008280700081b79f00b6
:101280000d0007004f3ade0000004000040070002f
:10129000f0af9f00080007000402420085824a0068
:1012a00006034b0087834b00dfff07000802be00e8
:1012b0000a03be00000006002fb29700bfb29700dd
:1012c0004fb39700dfb3970000000600881f780037
:1012d00018002000881f780089ff07008f87e90029
:1012e0004f04780000000600801feb0084ff070019
:1012f0008f87e90000000600889fbe008a9fbe001d
:10130000e00f5000e08f5800e00f5900e08f5900c7
:101310000c003d006044b8006055b8000000540067
:1013200081805c0002015d0083815d001800200067
:101330001500070008003d00180007000004eb003e
:10134000050037000004eb000f00070002003d001d
:101350001200070018002000dcff07000800e00072
:10136000060032006022b8006033b800000052006e
:1013700081805a0002015b0083815b004f05be0043
:101380004f04be0000000600e00f5200e08f5a003c
:10139000e00f5b00e08f5b00000006006044b800d7
:1013a0006055b8000402540085825c0006035d00ad
:1013b00087835d0000000600889fbe008a9fbe00f4
:1013c0008c1f7800e00f5000e08f5800e00f5900ac
:1013d000e08f59000d003d006044b8006055b80032
:1013e0000000540081805c0002015d0083815d008b
:1013f0001c0020000820e10009a8e1000ab0e1007b
:101400000bb8e1000d003d00080037000006eb00be
:10141000e00f5200e08f5a00e00f5b00e08f5b00ae
:1014200006003d006044b8006055b8000402540056
:1014300085825c0006035d0087835d00aaff0700cc
:101440000c00e000060032006022b8006033b800f3
:101450000000520081805a0002015b0083815b0022
:101460004f0678004f05be004f04be000000060086
:10147000889fbe008a9fbe008c1f78000006eb008c
:10148000e00f5000e08f5800e00f5900e08f590046
:1014900007003d006044b8006055b80000005400eb
:1014a00081805c0002015d0083815d001c002000e2
:1014b000e00f5200e08f5a00e00f5b00e08f5b000e
:1014c00007003d006044b8006055b80004025400b5
:1014d00085825c0006035d0087835d000c00a2002e
:1014e000710007000c00e000060032006022b80026
:1014f0006033b8000000520081805a0002015b0096
:1015000083815b004f0678004f05be004f04be008c
:10151000000006000003be0053fd07006220e1004a
:10152000020032000600be0005000500e507b1001c
:10153000f107b20004f023008480700007f0a700d8
:1015400001f0a000240005001400200078003700fe
:10155000f4ff2f00760037004f89de00820178000b
:101560008e0037000400200000003700889fbe0076
:101570008a9fbe008c1f78004f26dd004ffd0700bc
:1015800056fd33006120e100430032006250e1006b
:1015900041003e003e0039006420e1003c00320082
:1015a000058255000f003b000402e80038003a00b5
:1015b000800f5300818f5b00350034000800be00af
:1015c00003f0a10001f0a60003f0a0000cf0a700ba
:1015d0003dfc07004afd37000603430087834b00ac
:1015e0000c4646000005530081855b000200330075
:1015f0000a03be000c00a0000402e900f6ff3b0055
:10160000850578000602430087824b0004003a00fb
:101610006000b80009f0a70001f0a00038fd370015
:101620000002520081825a000704e00004003300e7
:101630000603430087834b008b05e900faff370060
:10164000090578000604be000203be006011b80060
:10165000dffc0700e00f5200e08f5a000700350062
:1016600002003c000c08a300040032000601be008a
:1016700003f0a0000cf0a70013fc07000a85680027
:1016800001f0a1000af0a70001f0a0001cfd370046
:101690000800be001afd3700100220000cf0a60062
:1016a000904088001afd3700889fbe008a9fbe00c8
:1016b0008c9fbe000404b8000506b80089044600eb
:1016c00060854e000606b8000a054600e0854e001b
:1016d0000706b8008b054600040eb80089044600d2
:1016e0000a854e00e0854d00050eb8000a0546004b
:1016f0008b854e00060eb8008b0546000416b80018
:101700000a0546008b854e000516b8008b0546007d
:10171000041eb8008b0546000800be000a01be008a
:101720004f06be004f05be004f04be00000006007d
:10173000889fbe008a9fbe00841f7800dffc0700e0
:101740004f00780011003300f0ff2f00838f6c00f2
:1017500006003b00040565000a00a70008003700ea
:1017600009f0a6001000200008003700820f540086
:10177000838f5c00030039001000200001003e0050
:101780000000200009f0a7000000ea004f05be009d
:101790004f04be000000e00000000600881f780033
:1017a000030478000300e00007003d006000100023
:1017b000e080180060011900e081190002003b0080
:1017c00001f02d00030037000400070008f0a70017
:1017d00001f0a0004f04780000000600889fbe00c2
:1017e0008a9fbe00008270000402710004827100b2
:1017f000260032000004be000200be006011b800e6
:101800006b092000950220000182cf000a003900f8
:101810000541b1000082cf00070039000541b10049
:101820000982cf00040039000541b1000882cf00d1
:10183000010039000541b10005425200120032009a
:101840000a003b0082817100610164008100d100c7
:101850000080d3008984d3000884d3008b05e8007e
:101860000442e800f7ff3a0007003700080444008c
:1018700089844c0000004800818048008b05e90005
:101880000442e900f9ff3a0051fc07004f05be0091
:101890004f04be0000000600889fbe008a9fbe0065
:1018a0008c9fbe008e1f7800010678000c00e000bf
:1018b00001003200000e78008004780009057800ed
:1018c0008a047800b905fb000b00780032fb0700a2
:1018d0000000e000f9ff3a00d0022000808f5500a0
:1018e00003003a000905780018c0b300050037006e
:1018f0000044eb00b0022000808f550001003a0048
:10190000090578006000b8008004eb000007eb00d8
:10191000010037000a05e8000a0178000848a30022
:1019200005003a00e3c2b3009acf110002003a006a
:101930000844a000f7ff37009a4578008b01fb00b0
:101940000303b100e98f510016003e000814a00007
:101950000801fb00e98f54000e0032000248a3008a
:10196000010032000e07e9008904e800a20020000f
:10197000030020005d09070002cdb30002c145004d
:101980000281fb008001eb000000410081804900e2
:10199000e0ff37000248a300deff3a000e07e80030
:1019a000dcff370053c6b30083cf5500040032007c
:1019b0008004eb0053c4b30083cf55002d003a00e0
:1019c0005a417800d3c2b300834f510002003a005d
:1019d0000834a00003003700b3c2b300834f5100a6
:1019e00001003a000a05e8000a01780002057800c3
:1019f0003a42780003c3b300834f5200faff32002b
:101a00008402fb000503b1008004eb00e98f520063
:101a100015003e00834452008984fb000a017800cf
:101a2000124278008402fb000503b100e98f5200e6
:101a30000d003e006a4bb900834452008984fb00cc
:101a400086844400524278008402fb000503b10002
:101a5000e98f520004003e006a4bb90083445200f3
:101a60008984fb00868444000838a300010032000a
:101a70008904ea000c00e000030032000818a3000b
:101a800001003200020e7800b3fe07000005be0020
:101a90000006be006011b800abfe07000001780030
:101aa0006000b8000200e000580032008e8444005c
:101ab00032f82f00828f540003003d0022022000e4
:101ac000924088005100370000082000808f5400a9
:101ad0000700340020022000904088000808a3007e
:101ae000450032000000200001f82f0047003700b9
:101af0000900e0001b003d008904ea0006003700f1
:101b0000922f2000530125000a00be004dfb070064
:101b10000005be00ea845400e98f5400f8ff3c0041
:101b20000600370002002000031224000a00be0055
:101b300044fb07000005be008904e9000900e0003d
:101b4000f8ff3a000a06be00020020000308200049
:101b50000a00be007cfe07000000e00021003d00fe
:101b60001b0037000900e00007003a001d003700a5
:101b7000922f2000530125000a00be003efc070002
:101b80000005be00ea845400e9cf5400f8ff3e008f
:101b90000600370002002000031224000a00be00e5
:101ba00035fc07000005be008904e9000900e000db
:101bb000f8ff3a000a06be00f2ff2f00f3f72700f5
:101bc0000a00be0062fe07000000e00005003400cd
:101bd0000808a3000b0032000000200001082800c4
:101be0000a0037000808a300010032000df0a2002f
:101bf0000c00be00050037000000200001f827009f
:101c00000200370000002000010820004f07780084
:101c10004f06be004f05be004f04be000000060088
:101c20001dff37008000eb001bff370080017800ac
:101c300002003700b15978000201e9000200e0001b
:101c4000fcff3a0000000600889fbe000004be00b2
:101c5000050037000000fb0089007800f705070049
:101c6000e10f400004003200384078000004e0003a
:101c7000f8ff3a000000eb004f04be000000060031
:101c8000881f7800616b2100efff070000047800d7
:101c9000616b2100a0002000e80507000800780023
:101ca0004f047800000006000001780082017800ef
:101cb000030178003204e000fcff3a003141780073
:101cc000825978000204e000fcff3a0000000600a0
:101cd000b041780031c1510002003a000304e00035
:101ce000fbff3a000200fb00000006000001780044
:101cf000b1417800035978000304e000fcff3a008a
:101d000000000600800078003104e000feff3a0089
:101d10000080ea000080400000000600616b2100a6
:101d2000c60537000c00fa00889fbe00000478004a
:101d3000f0ff2700d0bf9f008004eb0099bf9f00f9
:101d400088bf9f00a8bf9f00200c2000b0bf9f004d
:101d500078815700cfb0970070805700cf00070000
:101d60000fb89700094878008fb897000880500096
:101d70004f04be000080fa00000006000800fa00d0
:101d8000889fbe008a9fbe000084fb00d1c6b300be
:101d9000814f5000340036004b062000110009002e
:101da0000b84d80081057800720040004300dd00fc
:101db000895a2100008044006022b80006002000fb
:101dc00007fe23005001be004000be00bc07070014
:101dd0000002be000203be0084bf9f0095bf9f00ab
:101de000a6bf9f00b7bf9f00aa00200011000900f6
:101df0008a85d80080057800e9854500c35ddd004f
:101e00008b8544003b02be002b03be000fb8970039
:101e10009fb897002fb99700bfb99700a807070090
:101e20000002be000203be0084bf9f0095bf9f005a
:101e3000a6bf9f00b7bf9f00110009000a84d80009
:101e4000010478004344dd00888444003902be0068
:101e50002903be000fb897009fb897002fb99700cd
:101e6000bfb997001d003700ea4f5000130036003d
:101e7000aa002000110009000a84d800010578009a
:101e8000690440004344dd00895a2100088444006d
:101e90006022b8000600200007fe23003800be00c4
:101ea0002801be00860707004355dd008a844400f0
:101eb0003902be002903be00080037004344dd009c
:101ec000805a2100080440006022b800060020006b
:101ed00007fe23003800be002801be007807070077
:101ee0004f05be004f04be000080fa00000006004f
:101ef0000800fa00889fbe008a9fbe00d1c6b300ca
:101f00000004e00023003d000040ea000004fb0064
:101f1000814f50000a0034004206200011000900e1
:101f20000204d800a9002000110009008900d8008f
:101f3000e9004000c308dd008a5a21002100370073
:101f4000ea4f500010003400a200200011000900e8
:101f50000204d80001017800690040004300dd0060
:101f6000815a2100008040004311dd008280400042
:101f70003102be002103be005001be004000be0081
:101f80004f070700380037004344dd00805a210026
:101f9000320037000004fb00814f50002300340062
:101fa00042062000110009000204d800a900200008
:101fb000110009008900d800e9004000c308dd00d5
:101fc0008a4f2100810045003102be002103be007e
:101fd0008b0920008a8545003b00be002b01be0016
:101fe000370707000002be000203be0084bf9f0047
:101ff00095bf9f00a6bf9f00b7bf9f0011000900bb
:102000000904d800010478004344dd0008054500b8
:102010003a02be002a03be000fb897009fb897008f
:102020002fb99700bfb99700d5ff3700ea4f50008e
:1020300008003400a2002000110009000204d800aa
:1020400001017800690040004300dd00814f21005c
:10205000c4ff37004344dd00804f210008044000e6
:102060003800be002801be004f05be004f04be0070
:102070000080fa0000000600d001900002815100ab
:102080004240a900030034001001780001497800a3
:102090000208e80001007800000006006f02b000ae
:1020a000889fbe008a9fbe008c9fbe008e1f780056
:1020b00000067800b1af9f0092b79f006000b800a3
:1020c0006011b800d0af9f00e1af9f00f2af9f005a
:1020d00083b79f008006eb00c5043700bfa89700b8
:1020e0008100e800b1af9f0051c2b300814f5000a2
:1020f00003003a00bfa897000007eb00110037006b
:10210000bc0090000000fb000168a3000700320043
:102110000d017800800078000c007800d6ff0700e1
:102120000000e00005003a00b10437008c007800a0
:10213000c2040700e10f4000ad0432008d06e80044
:10214000ab0437000101780031407800d3c2b300fe
:10215000834f50000c00320007003c00edc15100dd
:10216000834f50000a003200ebc14100834f500002
:102170000d003a000800370003c3b300834f50003e
:1021800009003a00060037000e30a000edff3700ce
:102190000e00a000ebff37000e10a000e9ff370093
:1021a0000e20a000e7ff37000e18a3000100320048
:1021b0000e00a1000e38a300010032000e20a10085
:1021c0008000fb000103b100e98f50000c003e00cd
:1021d000020078008005eb006a59b900b005fb00e9
:1021e0000b03b10082854500000178009000fb00e0
:1021f0000103b100e98f5000f7ff360008003700f7
:102200008005eb00a1c2b300814f500004003a00ea
:102210009fb19700c305780093b79f000201e800c3
:10222000e0c2b300924f100016003a000ee0a0008a
:1022300064405000d24f10000300320002007800ca
:102240008001eb00080037009fb29700450378003b
:1022500095b79f00e6b79f000201e8000c00370029
:102260006a19b9008281400000017800b000fb00cb
:102270000103b100e98f5000f9ff3600e3b79f007a
:10228000030037000ec0a0008003eb00e7b79f00fb
:10229000820178003340780003017800c1c6b300a2
:1022a000814f50002b003200b3af9f0014003c0060
:1022b000e8c05000814f50002400320009003c006b
:1022c000ecc05000814f50002a003200ebc04000ab
:1022d000814f50008c0032000004e00049043200bd
:1022e000a200370061c6b300814f50001b003200ce
:1022f000e3c04000814f50009c003a0013003700bb
:1023000031c7b300814f50001e00320007003c006f
:10231000e4c05000814f5000130032008140e800bb
:10232000814f500091003a001200370051c7b300ae
:10233000814f500092003200e3c04000814f5000b6
:102340008a003a00e0cf9f000c003700e0cf9f00ea
:102350008d0037000e40a000cdff3700e0cf9f007a
:102360000ea0a00088003700e0cf9f000e60a00004
:1023700085003700e0cf9f000e50a0000e70a00037
:1023800081003700e0cf9f009fb0970041007800a8
:1023900091b79f00000478000000e00001003a00bf
:1023a000a8672100880078000000eb0001003700da
:1023b0000000e800614178000204e000fcff3a0000
:1023c000800478006fb197000200e0000300320043
:1023d000890f510001003100820478000005eb00f4
:1023e000898f550001003600098555006807670090
:1023f0002a003a00110037003c0090000068a3005a
:10240000070032000d017800010220000c00780066
:1024100019ff07000000e00006003a000600370040
:102420008c0078000002200004040700e10f400047
:10243000010032008d06e8000a05e9000a00e0000c
:10244000edff3a000085eb00140037003c009000df
:102450000068a3000900320008007800b000fb000b
:10246000000478000d0178000c00780002ff0700de
:102470000000e00008003a000800370088007800fb
:102480003100fb00010478008c007800eb030700aa
:10249000e10f4000010032008d06e80009007800dd
:1024a0008004e9000000e000e8ff3a000e00e000d0
:1024b000cf033200110037003c0090000068a300f9
:1024c000070032000d017800010220000c007800a6
:1024d000e9fe07000000e00006003a0006003700b1
:1024e0008c00780000022000d4030700e10f4000b8
:1024f000010032008d06e8000a05e9000a00e0004c
:10250000edff3a00ba0337009fb19700430278000d
:1025100093b79f00cfa2de00482bdd004820de00ed
:1025200000007300c828de00e0cf9f000e48a30023
:10253000080032000004e00006003200e14f4000d5
:1025400004003200f0cf9f0084d79f0029002000b4
:1025500002003700f4cf9f0019002000e7fc2f0095
:102560008f8343000704e80096ff3700e0cf9f0009
:10257000e8fc2f000f0444001900200091ff3700f1
:10258000e0cf9f000e0cb3000170200081006700b7
:10259000700067000100e000190232000ec8a300bd
:1025a0000200320061002000e1b79f000000e0005f
:1025b000060032001fb09700680050003002be00d5
:1025c0002003be0090b79f00060037001fb19700a0
:1025d0004200be0092b79f00490507000002be00fe
:1025e0000203be00a4b79f00b5b79f00c6b79f0007
:1025f000d7b79f006022b8006033b8002fb09700b3
:10260000bfb097004fb19700dfb197008e0407006d
:102610000000e0000a003d002fb09700bfb0970017
:102620004fb19700dfb1970003f0a200a0b79f0061
:10263000b1b79f00c2b79f00d3b79f003e00b30061
:102640000000eb0090af9f006022b8006033b8003c
:102650002fb09700bfb097004fb19700dfb1970040
:10266000dd0407000000e0003400320024fd2f00ec
:102670000f0242002fb09700bfb097004fb19700f4
:10268000dfb19700700507001fa897000000e90060
:102690006302b900a2002000110009000202d80064
:1026a00090af9f000000e00002003d000000e90044
:1026b00090af9f001fac97000840ea000cfe070097
:1026c0002fb29700bfb297004fb39700dfb39700c8
:1026d0007b0507000002be000203be00d4af9f00ce
:1026e000e5af9f00f6af9f0087b79f006022b8005c
:1026f0000600200007ff2300530407000000e0004d
:1027000002003d000804e9000b0037006022b80019
:1027100006002000470224005fa89700efa897005a
:102720007fa997008fb197004c0407000000e000dc
:10273000020035000804e80098af9f00efb2970050
:10274000ec8f52000f003c00054078008bfd070025
:102750000002be000203be002fb09700bfb097007a
:102760004fb19700dfb19700b90307000002be0028
:102770000203be00a4b79f00b5b79f00c6b79f0075
:10278000d7b79f001fac9700e90f540015003c001d
:102790006022b8006033b8002fb09700bfb0970038
:1027a0004fb19700dfb197008b0407000000e000f5
:1027b000310032002fb09700bfb097004fb19700a3
:1027c000dfb19700ed040700e00f5000e08f5800e4
:1027d000e00f5900e08f590027003a00e10f540044
:1027e000250034000400200005002e00b6e0220081
:1027f000170124005fa89700efa897007fa9970012
:102800008fb19700100407000000e00002003d00b7
:1028100069045400010037006804540098af9f0019
:102820002fd09700b2fd07000002be000203be00d9
:10283000d4af9f00e5af9f00f6af9f0087b79f0022
:102840002fb09700bfb097004fb19700dfb197004e
:1028500007040700c90407000004be006000b800b8
:102860006011b800a0b79f00b1b79f00c2b79f002a
:10287000d3b79f00160037002fb09700bfb0970066
:102880004fb19700dfb19700bc0407000004be0001
:10289000eb0407000002be000203be002fb0970049
:1028a000bfb097004fb19700dfb197007a050700de
:1028b0000002be000203be00a4b79f00b5b79f0090
:1028c000c6b79f00d7b79f000000eb0090af9f00f6
:1028d0002168210010c0b30005003700e4804000eb
:1028e000b10f5400a18f5c00030039000040e800e4
:1028f000ea4f5000f9ff3a00e0cf9f009fa89700f1
:1029000081805500efb29700858050000005fb00e4
:102910000a8550000500e000010032000a05e900c8
:1029200063006700010032000a05e9000e28a300d9
:1029300039003200610167000e18a3000f00320059
:102940003c0090000068a30006003200b1022000a5
:102950000200e000010032008180e8000d017800f3
:102960000d003700b00220000200e000010032003c
:102970000080e8008c0078000e0037000200e000c4
:10298000220032003c0090000068a30007003200e3
:102990000d017800010220000c007800b6fd070050
:1029a0000000e00006003a00180037008c007800b4
:1029b00000022000a1020700e10f400013003200d6
:1029c0008d06e800110037003c0090000068a3006d
:1029d000070032000d017800010320000c00780090
:1029e000a5fd07000000e00006003a0006003700e1
:1029f0008c0078000003200090020700e10f4000e7
:102a0000010032008d06e8000a05e9000a00e00036
:102a1000edff3c00570037000e38a30014003a00c9
:102a2000110037003c0090000068a300070032004e
:102a30000d017800010220000c0078008efd0700d7
:102a40000000e00006003a00060037008c00780025
:102a50000002200079020700e10f4000010032006f
:102a60008d06e8000a05e9000a00e000edff3c00e1
:102a7000610167000e18a3000e0032003c009000b8
:102a80000068a30005003200b10220000200e0004f
:102a9000220032008180e80020003700b0022000d0
:102aa0000200e000010032000080e8008c007800a5
:102ab0002c0037000200e0002e0032003c009000a5
:102ac0000068a300030032000d017800010220001d
:102ad000130037008c00780000022000210037002e
:102ae0003c019000206821008100fb000268a300e7
:102af00010003200c208dd00810040001101be005c
:102b00000800be00e6040700a20020000300200029
:102b1000f304070001032000808040000d017800cd
:102b20000c00780054fd07000000e00010003a009f
:102b300010003700c208dd00810040001101be0016
:102b40000800be00d6040700a200200003002000f9
:102b5000e304070002032000000141008c0078001c
:102b60000200780035020700e10f4000010032004a
:102b70008d06e8006fc897008040e900e1cf9f0014
:102b80000004e000d6ff3a00130037003c0090003c
:102b90000068a300070032000d0178000103200047
:102ba0000c00780034fd07000000e00006003a0049
:102bb000060037008c007800000320001f02070089
:102bc000e10f4000010032008d06e8001fa89700c9
:102bd0000000e90090af9f001fa897000000e000f0
:102be000eaff3c006fb39700e80f53000300340086
:102bf00080c0b300e0cf9f0002003700cfeb97000a
:102c0000e7cf9f006fc897008005fb00efb09700eb
:102c10008b8550000004e000100032003c00900062
:102c20000068a300070032000d017800e1022000d7
:102c30000c00780010fd07000000e00006003a00dc
:102c4000060037008c007800e0022000fb0107003e
:102c5000e10f4000010032008d06e8006fc89700c8
:102c6000a3fc07000002be000203be002fb09700c5
:102c7000bfb097004fb19700dfb197001004070075
:102c8000be0307002d0037003c01900021682100a1
:102c90000000fb000268a300100032004200dd00cb
:102ca000808040001101be000800be007c040700c7
:102cb000a200200003002000890407000103200077
:102cc000808040000d0178000c007800eafc0700cd
:102cd0000000e00010003a00100037004200dd0064
:102ce000808040001101be000800be006c04070097
:102cf000a200200003002000790407000203200046
:102d0000000141008c00780002007800cb01070030
:102d1000e10f4000010032008d06e8006fc9970006
:102d20000200fb004200dd0021682100008040001d
:102d30001001be000800be00690407000004be00c8
:102d4000efc897000140e900e0cf9f000104e000d8
:102d5000cdff3a00110037003c0090000068a3004e
:102d6000070032000d017800010320000c007800fc
:102d7000c1fc07000000e00006003a000600370032
:102d80008c00780000032000ac010700e10f400038
:102d9000010032008d06e8008b05e9000b00e00021
:102da000edff3a000e38a300910132000a00e00066
:102db0008f0134003c0090000068a300070032003f
:102dc0000d017800010220000c007800aafc070029
:102dd0000000e00006003a00060037008c00780092
:102de0000002200095010700e10f400001003200c1
:102df0008d06e8000a05e900eeff3a007c01370085
:102e00008e007800010cb20011003a000000e000d2
:102e1000040032009fb197004304be0093b79f00a7
:102e2000040037001fb297004404780094b79f0055
:102e3000cfc4de00e00f5400e08f5c000e003d00c8
:102e40003e00b30060041400e0841c000a00370058
:102e50000000e000040032009fb297004504be006d
:102e600095b79f00040037001fb397004604780011
:102e700096b79f008004eb00efb397000700e000d7
:102e800006003a000880740000f0a7000000ea0085
:102e90000000e9004f00de00e0b79f000e00780060
:102ea000000cb200c0af9f0000042000cfa8970024
:102eb000808f50002300320003003c000100e0003e
:102ec000080032002d003700000820004fa99700ad
:102ed000800f51000d003200000c2000800f5100c7
:102ee00026003a002168210010c0b300e4804000b1
:102ef000b10f5400a18f5c001f0039000040e800b2
:102f0000ea4f5000f9ff3a001b00370010c0b30031
:102f10000201200003002000820f5400838f5c0018
:102f200015003900441add00cc11de008301720067
:102f30004411dd000040e800e84f5000f6ff3a0081
:102f40000d00370010c0b3008200200003002000f5
:102f5000820f5400838f5c0007003900c31add0024
:102f6000cd11de00838172004311dd000040e800d6
:102f7000eb4f5000f6ff3a00e0cf9f006fcb970079
:102f80000600fb00efb39700870f500002003d00e2
:102f9000e7cf9f0004003700efb09700808f50000c
:102fa00001003d00e0b79f000b00e000030032008d
:102fb00063006700010032008b05e9000ee8a30002
:102fc000060032006fb19700828f55000200340076
:102fd00082855500010037008005eb00efc997009e
:102fe0000300fb000002eb00a4b79f00808f550098
:102ff0000200340000805500a0b79f000e28a300f7
:103000003c003200610167000e18a3000f0032007f
:103010003c0090000068a30006003200b1022000ce
:103020000200e000010032008180e8000d0178001c
:103030000d003700b00220000200e0000100320065
:103040000080e8008c0078000e0037000200e000ed
:10305000100032003c0090000068a300070032001e
:103060000d017800010220000c00780002fc07002e
:103070000000e00006003a00060037008c007800ef
:1030800000022000ed000700e10f400001003200c7
:103090008d06e800afb297000500e0005200320054
:1030a000050578003c0090000068a300070032008e
:1030b0000d017800010320000c007800eefb0700f2
:1030c0000000e00006003a00060037008c0078009f
:1030d00000032000d9000700e10f4000010032008a
:1030e0008d06e8000a05e900eeff3a00aab79f0046
:1030f0003d0037002fb397000600e00016003200b5
:103100000e38a30014003a00060578003c00900039
:103110000068a300070032000d01780001022000c2
:103120000c007800d4fb07000000e00006003a0025
:10313000060037008c00780000022000bf00070066
:10314000e10f4000010032008d06e8000a05e900a9
:10315000eeff3a00aab79f00610167000e18a300b6
:103160000f0032003c0090000068a300060032000f
:10317000b10220000200e000010032008180e8007e
:103180000d0178000d003700b00220000200e000c1
:10319000010032000080e8008c0078000e0037004b
:1031a0000200e000100032003c0090000068a30024
:1031b000070032000d017800010220000c007800a9
:1031c000adfb07000000e00006003a0006003700f3
:1031d0008c0078000002200098000700e10f4000fa
:1031e000010032008d06e800efb397000702e90006
:1031f0006320b90000017800a2af9f004222dd00e9
:10320000206821000002420004057800cfad97003d
:103210005c003700efb197008301e900e3b79f003e
:1032200000042000808f55003700320003003c006e
:103230000b00e000070032003d00370000082000ce
:10324000808f550020003200000c2000808f550038
:1032500037003a000e48a300100032001a02be00e8
:103260000401be000800be00f4b79f0085bf9f00a8
:103270000b030700e0cf9f000000fb00cf80de00c3
:103280007fb297008fba97000401be0017030700b2
:103290000004540081845c00070037001a017800a4
:1032a000110009000284d800a200200011000900ca
:1032b0000280d800e1cf9f006fca97000443b0009e
:1032c000e4cf9f001a003700906621000e58a3003b
:1032d0000100320080652100216821008100550035
:1032e0000801be008100e900030033008301d10022
:1032f0000281d300fbff37006f016100604179005c
:10330000e2cf9f000a0037000800be00afaa970076
:103310008502e900030033008100d1000080d30062
:10332000fbff3700674060000043b000e0cf9f0024
:10333000bc0090006fcb97000600fb000168a30063
:10334000070032000d017800800078000c00780042
:1033500049fb07000000e00005003a0005003700c7
:103360008c00780035000700e10f400001003200ba
:103370008d06e800afab9700e3835300a7af9f0033
:10338000640555006fb097000000e000a1ff3a000f
:103390000e38a30016003200afb097000100e00025
:1033a00013003400010578003c0090000068a30081
:1033b000070032000d017800010220000c007800a7
:1033c0002dfb07000000e00006003a000600370071
:1033d0008c0078000002200018000700e10f400078
:1033e000010032008d06e8000a05e900eeff3a0010
:1033f0003fa9970012407800e0cf9f000004e00052
:1034000036fb3a000d0078004f0778004f06be00eb
:103410004f05be004f04be006f02b1000000060061
:103420000000fa0068815700cfb89700606b210058
:103430001afb07000080fa0000000600889fbe000b
:1034400001047800b80090008084eb000118a3000c
:103450003a003200180190000198a30002003a00df
:103460000200e00035003a000190a000310498000d
:1034700080047800f90fb2000200e00002003a0078
:1034800028009000000c7800ea8f540005003a00f4
:103490000178a30003003a0088007800d0002000e3
:1034a000e6ff070018009000d8009000810f500040
:1034b0000b0032000000e8001004980018007800ab
:1034c00009487800000ce80011c0b300406e2100ec
:1034d00001487800ea8f540018003a0005003700d0
:1034e0008800780009407800170007008004780001
:1034f00012003700380090000088a3000f0032004f
:1035000018019000a8009000480090002af40700dd
:1035100098009000810f50000400320038009000a5
:103520000003b300300498008084eb000000eb003f
:103530001004980028009000000c78000900780022
:103540004f04be00000006000200fa00889fbe0083
:10355000a0ff9f0001047800380090000068a300dd
:1035600033003a00e200600005003a000003b300b7
:1035700030049800110498000080eb002e00370002
:10358000d80490000900e00006003a001200200074
:10359000e68057004800900007f4070019049800df
:1035a00023003700a80090000100e00008003a0066
:1035b000716e210021049800010c78002100200088
:1035c00051049800110498000030a00030049800c5
:1035d00018019000a800900048009000f6f3070042
:1035e000280090008080eb0011049800aff897004d
:1035f00001487800000ce8002ff89700ea4f5000cf
:103600000b003a00380090000088a3000800320048
:1036100018019000a800900048009000e6f3070011
:103620000000eb0010049800a8009000010c780046
:10363000aff897000100fb004f04be000080fa00c5
:103640000000060000c0da000000060000000000d4
:103650002800fa00889fbe008a9fbe008c9fbe0093
:1036600007067800878669000c003b000304780099
:103670008704780008f0a10009f0a100840f500031
:10368000858f5800860f5900890f5c0003003300b6
:103690000cf0a20001003a000cf0a100ff000700ae
:1036a0006400e1005f003200780147006408e10037
:1036b000610032006c014700748557003200be0083
:1036c0001201be003a04be001a05be001e0390009f
:1036d000be0a90008503530006003d000004fd0073
:1036e0008104fd000205fd008305fd008703ea005b
:1036f000050378000df8a3000400320060041400f4
:10370000e0841c0060051d00e0851d006022b800fb
:103710007d0320000d38e1008006eb000b0039002e
:103720004433dd00f300b200830173003900370039
:10373000848272000d027800e10664008b85d1005e
:103740000a85d3008984d3000884d3008703e90065
:10375000f7ff3b0008004000898048000a0149004b
:103760008b81490004003b0060001000e0801800dd
:1037700060011900e08119000358a300090032001c
:103780008d82720084827200610260008301d10028
:103790000281d3008180d3000080d3000603e800bb
:1037a0001b0037000348a30017003a000600e000a2
:1037b000170034000603e9000d00a30000004800d4
:1037c0008180480002014900838149000348a30029
:1037d0000f003a000600e000090034000603e9008b
:1037e00000004000818048000201490083814900b7
:1037f00001003a000003eb000348a300f5ff32008c
:103800006022b80002003700848272006182660084
:103810007600070003f0a1000cf0a70003f0a00061
:10382000b2003700640147006408e10002003a007a
:103830000df8a300aa003a003200be001201be003b
:10384000aa003700000000008f1fd100ad01070063
:103850008f87e9000000e00000000600809feb0079
:10386000a80107008f87e9000000e00000000600c3
:103870002800fa00889fbe008a9fbe008c9fbe0071
:1038800003866b00850007006400e10044003200fd
:103890006408e1004a0032006100e10046003200a5
:1038a0006108e10049003200ec0647006000b80002
:1038b0003d02be003d03be00f48657006011b80013
:1038c0003d04be003d05be007d0320000b00370017
:1038d0000000a0008d06e90013003200040242003f
:1038e00085824a0006034b0087834b00000040009e
:1038f000818048000201490083814900080252008a
:1039000089825a000a035b008b835b00f0ff3b0057
:103910000802420089824a000a034b008b834b0055
:103920008d06e900edff3a00848272008682720003
:10393000f707b200878272000100320015002000f4
:103940001e0490003e0b900006035400e63fb000ba
:103950000368a300070032000000a7000500a000d4
:103960008301d1000281d3008180d3000080d30085
:103970000603e8008301d1000281d3008180d300d7
:103980000080d3000002eb000482d2001700070081
:1039900003f0a1000cf0a70003f0a00053003700d3
:1039a000640247006408e1004d0032003400be00ac
:1039b0003401be00f6ff37006108e1004800320024
:1039c0006011b8006000b800f1ff370003ff270066
:1039d00002002000fbff3700801feb0049010700b9
:1039e0008f87e9000000e0000000060018002000ba
:1039f00057002000080453000d003d000600200081
:103a000097fc2f000740e1001e0034008482720002
:103a1000610260008301d1000281d3008180d30064
:103a20000080d3000804e800f8ff3a0047002000b7
:103a30006104600005047400040464000d00320099
:103a400061004000e080480060014900e0814900d9
:103a500003b8a500070032000603e8006538e1005e
:103a600004003a008301d1000281d3008180d30099
:103a70000080d300f87f20000830e100030035000b
:103a8000080378006000b8006011b8004433dd001e
:103a9000f300b200830173000000060068044700d1
:103aa0000294be000094be00fc0447008694be0051
:103ab0008494be00090078005b01070008007800cc
:103ac0005901070099007800814f70000b003b00fe
:103ad0000800be00340107004f00b10003003700aa
:103ae000f3ff2700f2ff2f006110b9004f06be0060
:103af0004f05be004f04be000080fa000000060023
:103b000081037800d8f307000001be006000b80010
:103b10000478a30013003a006220e10015003e0083
:103b20000d0039008301d1000281d3008180d300d0
:103b30008301d1000281d3008180d3008301d100b1
:103b40000281d3008180d3000538b000c42add0093
:103b5000f300b2008381720007f0a70003f0a00019
:103b600000000600f3ff2700f2ff2f006110b900ec
:103b7000fbff370003ff2700f7ff37001400fa00b0
:103b8000889fbe008a9fbe008c9fbe000004be00be
:103b90000205be00680047000a90be000890be0003
:103ba000210107000070a7000bf0a1000bf8a30093
:103bb00020003a009e0990000e099000fe0090003f
:103bc0006e0090009e0290003443200084825200d8
:103bd000c6ff32000a003c00b4fc2f000428e100bc
:103be000140034008301d1000281d3008180d3000e
:103bf0000080d3008502e800faff3a00bbff3700df
:103c0000b40020000428e10007003c000000400050
:103c10008180480002014900838149008502e90052
:103c2000faff3a00b1ff370003002800020020002d
:103c3000010037006011b8006000b800abff37002a
:103c40006011b8001f0137001400fa00889fbe0001
:103c50008a9fbe008c9fbe00040678000004be0050
:103c60000205be00680047000a90be000890be0032
:103c7000ed0007006200e1000800be000a01be007e
:103c8000040020000b003a001e029000e43fb10047
:103c90006e009000fe0090000e0990009e099000ba
:103ca000f300b20005fe2300858171000bf0a70030
:103cb00003f0a000040e78008cff37000000000025
:103cc0002800fa00889fbe008a9fbe008c9fbe001d
:103cd00003866b0071ff07000028a30064003a0010
:103ce0000128a30067003a000008a30062003a0020
:103cf0000108a30065003a001e009000be08900075
:103d000081064000ed3fb100f4805700ee019000c5
:103d1000111ab8008e099000311bb8009e0990005e
:103d2000311cb800511db800f4855700460007004b
:103d3000fe0190003a0007008b85e8003e00070076
:103d40008e09900040000700ee019000340007004b
:103d50008b85e800380007008e09900040000700be
:103d60009e0990001b18b800890440000a8548008d
:103d7000fe019000340007008b85e8003800070042
:103d8000ee019000300007008e0990001b18b8006b
:103d9000890440000a8548000a98a30008003a00f8
:103da0000402420085824a0006034b0087834b00d1
:103db00008044c0089844c000a054d008d06e9007a
:103dc00084827200850273004c3add008502720025
:103dd0000100320015002000443ade001400b20059
:103de0004538de00cb45dd000b007000c540de002d
:103df000cb4ddd008b8070004549de00cb55dd00ea
:103e00000b017100c551de000d037800f7fe0700bd
:103e100003f0a1000cf0a70003f0a00033ff37006f
:103e20001b18b8008502400006834800e0834b0061
:103e300060044c00070037001b18b8000603400060
:103e400087834800faff37001b18b800870340003b
:103e500008844800e0844c0060054d000000060026
:103e60001b18b8000804400089844800faff370096
:103e70000108a3001aff3a005800be005801be0016
:103e8000e3ff37000008a30015ff3a00090478009b
:103e9000f9ff37000000000007f0a200ecfd37003a
:103ea0006022b800060220000000d0008180d2000d
:103eb0000482d2008582d2000000a00002025200db
:103ec00083825a00030031000202420083824a00ca
:103ed0000000a1000603e900f3ff3a00000006001d
:103ee000efff07000400be0000000600020ab90050
:103ef000001bb9000200b8008100420081004300ad
:103f000000000600889fbe008a9fbe008c9fbe00f6
:103f10000404be000605be00809fbe00829fbe0056
:103f20002f000700040678000800be000a01be004a
:103f30002b000700840678004f03be004f02be002e
:103f40008d4f76007fb0970013003300f0ff2f00f5
:103f50008b8f6b0006003b000d0666000c00a7006f
:103f60000a00370007f0a600100020000a00370002
:103f7000880f5200898f5a008a0f5b008b8f5b007d
:103f8000030039001000200001003e000000200066
:103f900007f0a7000000ea004f06be004f05be0074
:103fa0004f04be0000000600e48240001078a30029
:103fb00007003200640240001178a3003400be0004
:103fc0001401be00040032000330a7000000060008
:103fd0003500be001501be000330a0000000060041
:103fe00005ff270005826100070032000428e10078
:103ff00001003200240005000600070001003a001d
:10400000440005000408050002000700f9ff3a001b
:10401000140005006f82610081027000850271004a
:104020008502720000000600800078005002be0089
:104030005003be004439de00f700b200f37f2000d9
:1040400003016100090032000218e10016003a0085
:1040500085017200830173008381730000082000d2
:1040600015003a004000200013003700850172005f
:10407000830173008381730005003a0004a8be0029
:1040800006a8be00100020000b0037000201e90066
:104090000402420085824a0006034b0087834b00de
:1040a0000748a300f9ff32000740a00004a8be00a3
:1040b00006a8be0020002000800098009200980012
:1040c00000000600889fbe0000827000040271009c
:1040d000048271002400320036432000c500200015
:1040e0008383cf000a0039000541b1008283cf00ed
:1040f000070039000541b1008183cf000400390079
:104100000541b1008083cf00010039000541b100b5
:1041100085c353006022b800120032000a003b0041
:1041200084827200610260008301d1000281d300a9
:104130008180d3000080d3000603e8008743e800b5
:10414000f7ff3a0007003700000040008180480078
:1041500002014900838149000603e9008743e90021
:10416000f9ff3a0021fe07004f04be0000000600e0
:020000040000fa
:10417000003200003a000000313a00000025000043
:1041800066000000200000003d0000003e0000002e
:104190003c000000414c000050480000410000007d
:1041a000534800004946000054000000450000004c
:1041b00044000000430000004200000041000000f5
:1041c0004a000000490000004800000047000000cd
:1041d000460000004f0000004e0000004d000000af
:1041e0004c0000004b000000540000005300000091
:1041f0005200000051000000500000005900000073
:104200005800000057000000560000005500000054
:104210005a00000027000000535400004f00000027
:10422000494e0000560000003c2d000000540000e4
:10423000414e000000530000494e000000430000c2
:104240004f530000002f000000390000003800002c
:1042500000370000004500004e54000045520000a9
:10426000002a000000360000003500000034000085
:10427000002d00000033000000320000003100007b
:10428000002b0000002e0000003000000053000052
:104290002d2d00002d2d00002d2d00002d2d0000b6
:1042a0002d2d00002d2d00002d2d00002d2d0000a6
:1042b0002d2d00002d000000323a00002573000073
:1042c0000a000000313a0000257300000a000000d7
:1042d00045720000726f0000722000003a2000005a
:1042e00025640000200a000000270000257300005c
:1042f0002700000045720000726f0000720000008d
:1043000053740000616300006b200000456d0000e5
:104310007074000079000000496e0000636f0000b7
:10432000727200006563000074200000417200009a
:10433000677500006d6500006e7400000055000098
:104340006e6b00006e6f0000776e0000207600003c
:1043500061720000005500006e6b00006e6f00007f
:10436000776e000020460000756e000063000000bc
:10437000556e00006b6e00006f7700006e2000002d
:1043800049640000004900006e6300006f72000085
:104390007265000063740000205300007472000016
:1043a000696e00006700000020200000202000004f
:1043b00020200000202000002020000020200000fd
:1043c000202000002020000000430000616c00005d
:1043d00063200000525000004e20000076300000a4
:1043e0002e31000000570000616b00006575000071
:1043f000702e00002e2e00000048000061720000a8
:104400006420000072650000736500007400000005
:104410004b65000079200000256400000044000086
:104420005550000000000000256600000025000037
:1044300064000000496e0000737400002d25000028
:1044400064000000272500007327000000760000ac
:104450006172000020250000730000004675000016
:104460006e63000020250000730000000053000070
:1044700074610000636b00003a200000002500001a
:10448000692000003a200000257300002020000071
:10449000005300007570000020250000732000000c
:1044a000256400000a0000007365000074460000e7
:1044b000756e0000633a00002025000073200000a4
:1044c0000a000000776800006f3a00007661000083
:1044d00072200000257300000a00000077680000c9
:1044e0006f3a0000467500006e6300002025000052
:1044f000730a000000000000696e0000746500008f
:104500007270000028250000732900000a000000d6
:104510002b0000002a0000002d0000002f000000ea
:10452000434f000053000000534900004e000000bc
:10453000544100004e0000004c4f000047000000b6
:10454000535400004f00000053570000415000003a
:10455000004400005550000000520000434c000091
:1045600000570000484f00000050000049000000c4
:10457000494e000056000000636f00006d7000009f
:1045800028250000732900000a000000006d0000cb
:104590006f7400003d250000730a00000000000059
:1045a00065780000656300003a2000002564000083
:1045b000200a000000240000002400002400000065
:1045c0006578000065630000467500006e630000ba
:1045d0002025000073200000256900000a0000006b
:020000040000fa
:1045e0000200fa00004f78001e00fb00610060002e
:1045f000004078000004e00002003200c262a8001f
:1046000001003700c262a9001e00fb0062006000ca
:104610000000e00002003200c242a80001003700a2
:10462000c242a9001e00fb00640060000000e00020
:1046300002003200c222a80001003700c222a900f5
:104640001e00fb00680060000000e0000200320075
:10465000c202a80001003700c202a9000080fa00cf
:10466000000006000200fa00004f7800ca42a900cc
:104670001e407800daff0700c282a8008040800058
:10468000cf80de006109b90004202100a5072000c9
:104690006033b80076f30700843e20000500200058
:1046a0006033b80009f307000000be00390e0700b0
:1046b000c282a9000080fa00000006000000fa0093
:1046c0000040eb00e7ff070010c0b300e5ff070064
:1046d0000080fa00000006000600fa00404798003b
:1046e000514798004e409000e14f50000e003a00b4
:1046f0005e409000f047b000004f78001e00fb00c5
:104700004480de00104798009e4078006fc0600033
:10471000204798001e409000d2ff07002e409000d6
:10472000d0ff0700110037004e409000e24f5000cc
:104730000e003a00de409000f0cbb30000c0400015
:10474000004f78001e00fb004480de0010479800f8
:104750009e4078006fc06000204798001e40900087
:10476000c0ff07002e409000beff07000080fa0047
:10477000000006000000fa000040eb0098ff070070
:104780000010270021002000020e070030c0b300f7
:10479000b4ff070000c4290001002000fd0d070040
:1047a00030c0b300afff0700007c250011002000df
:1047b000f80d070030c0b300aaff070020c0b30007
:1047c000a8ff070020c0b300a6ff070080c0b30009
:1047d000a4ff07000040eb00a2ff0700c0c0b30029
:1047e000a0ff07000040eb009eff070060c0b30081
:1047f0009cff07000080fa00000006000400fa0099
:10480000204798002e4090006f4f6000ae4090000f
:1048100000cfb30000c0600010479800ca42a80053
:104820001e4090000000fb004480de000040780045
:104830006bff0700c282a8000014200001002000c6
:10484000d40d0700c282a9001e40780064ff070053
:10485000c282a8000014200001002000cd0d070036
:10486000c282a9000080fa00000006000400fa00dd
:10487000100798000000eb00000f780006003700da
:104880001e0078009e0090000080400010407800dc
:10489000daff07001e0fe8001e0078009e0090005f
:1048a00000804000104078000004e000f4ff3a006f
:1048b0000080fa00000006000000fa0010c0b300fb
:1048c00068ff0700c0c0b30066ff07000080fa0061
:1048d000000006000000fa0010c0b30061ff0700ee
:1048e00080c0b3005fff07000080fa0000000600f0
:1048f0000000fa0071ff070012002000810b2a005f
:10490000c00a2100c9f4070012002000810b2a0010
:10491000000c2100c5f407000080fa00000006002a
:104920000000fa0065ff070011c0b30010c0b3001b
:1049300069ff070032002000910b2a00400d210082
:10494000baf40700c10a2100400d2100d6f4070087
:10495000400d2100c5ff070011c0b30020c0b30007
:104960005dff070032002000c10b2a00400d21002e
:10497000aef40700010c2100400d2100caf407002d
:10498000400d2100b9ff07000080fa00000006007a
:104990000000fa0049ff070011c0b30010c0b300c7
:1049a0004dff0700c00a2100b0ff070011c0b3008f
:1049b00020c0b30048ff0700000c2100abff070038
:1049c0000080fa00000006000200fa00000f7800e4
:1049d000010c2100c00a2100c4f407009e007800e9
:1049e000000c2100c1f40700e9ff07000080fa0075
:1049f000000006000600fa00881f780010079800e3
:104a000021079800010c2100c00a2100b7f407001b
:104a10001e009000ae009000809fbe00f00b2a00a8
:104a2000801f7800400d2100bef40700e687570084
:104a300012002000810b2a00000c21007bf40700eb
:104a40000000eb00000f780009003700000c210087
:104a5000acf4070080007800000c210000804000ca
:104a600022002000210c2a0070f407001e0fe8002d
:104a70001e047800400d2100a2f407006e00100013
:104a8000800f5400f1ff3900410d2100000c21007e
:104a900085f40700a2ff07004f0478000080fa00a9
:104aa000000006000200fa00000f7800a1c0b30069
:104ab00020c0b30008ff07001e0078006bff07004e
:104ac00000a0260081012000320d0700b0ff070082
:104ad0000080fa00000006000200fa00000f7800d3
:104ae00011c0b30020c0b300fbfe07001e00780019
:104af0005eff070000202100a1072000250d070010
:104b00000080fa00000006000000fa00c8c2a800f9
:104b1000c8e2a800c942a800c962a800c982a800ca
:104b2000c9a2a800c9c2a800c882a9006b00a80039
:104b30006ae0a8006a00a80069e0a80069c0a800af
:104b400069a0a8006980a8000080fa0000000600a3
:104b50000200fa000000eb00000f78005116800000
:104b600000042000008060000000e00002003a0025
:104b700010002000000f780051168000000820006f
:104b8000008060000000e00002003a0020002000e9
:104b9000000f780051168000004020000080600067
:104ba0000000e00002003a0030002000000f780012
:104bb0005116800000802000008060000000e000ae
:104bc00002003a0040002000000f780051168000db
:104bd00000002100008060000000e00002003a00b8
:104be00050002000000f78005116800000002200c5
:104bf000008060000000e00002003a006000200039
:104c0000000f780051168000000024000080600032
:104c10000000e00002003a0070002000000f780061
:104c20001e0078000080fa00000006000000fa0074
:104c30000088230011002000d60c07000080fa0035
:104c4000000006000400fa000000eb00000f7800ee
:104c5000ca82a800c262a800c242a800c222a8005c
:104c6000c202a800f1ff0700ca82a900efff0700f7
:104c7000b7ff0700100798001e0090000000e0003a
:104c8000050032001e0090000000e9006500b90038
:104c900000007800000fe800ca82a8001e0078001b
:104ca0000000e0000c003a00c262a900dfff07002c
:104cb000a7ff0700100798001e0090000000e0000a
:104cc000050032001e0090000000e9006500b900f8
:104cd00000007800008fe800c262a8001e00780083
:104ce0000000e0000c003a00c242a900cfff07001c
:104cf00097ff0700100798001e0090000000e000da
:104d0000050032001e0090000000e9006500b900b7
:104d100000007800630f4000c242a8001e00780027
:104d20000000e0000c003a00c222a900bfff07000b
:104d300087ff0700100798001e0090000000e000a9
:104d4000050032001e0090000000e9006500b90077
:104d500000007800640f4000c222a8001e00780006
:104d60000000e0000b003a00c202a900afff0700fc
:104d700077ff0700100798001e0090000000e00079
:104d8000040032001e0090006500b90000007800a9
:104d9000000f78001e0078000080fa000000060076
:104da0000400fa000000eb00000f7800a5ff0700e8
:104db000100798001e0090000000e000070032007d
:104dc0009aff07009fff07009e009000810f500090
:104dd00002003a009e009000010f78001e0078004b
:104de0000080fa00000006000600fa001007980094
:104df000210798001e0090006101b9000080eb00bf
:104e00008080eb00020040008380480022022000e6
:104e100003002000820f5000838f580019013e00cc
:104e20000060010022003700280037002e00370004
:104e3000340037003a0037004000370046003700a2
:104e40004c00370052003700580037005e00370032
:104e5000640037006a0037007000370076003700c2
:104e60007c00370082003700880037008e00370052
:104e7000940037009a003700a0003700a6003700e2
:104e8000ac003700b2003700b8003700be00370072
:104e9000c4003700ca003700d0003700d600370002
:104ea000dc003700e2003700e8003700ee00370092
:104eb00022002000410c2a002e0090005bf3070026
:104ec00010002000000f7800ee00370022002000c4
:104ed000610c2a002e00900054f3070010002000ff
:104ee000000f7800e700370022002000810c2a0024
:104ef0002e0090004df3070010002000000f7800f6
:104f0000e000370062002000a10c2a002e00900073
:104f100046f3070020002000000f7800d90037007a
:104f200062002000010d2a002e0090003ff30700d0
:104f300020002000000f7800d2003700220020005f
:104f4000610d2a002e00900038f3070010002000a9
:104f5000000f7800cb00370022002000810d2a00ce
:104f60002e00900031f3070010002000000f7800a1
:104f7000c400370022002000a10d2a002e0090005e
:104f80002af3070010002000000f7800bd00370052
:104f900022002000c10d2a002e00900023f30700fc
:104fa00010002000000f7800b6003700220020001b
:104fb000e10d2a002e0090001cf3070010002000d5
:104fc000000f7800af00370022002000010e2a00f9
:104fd0002e00900015f3070010002000000f78004d
:104fe000a800370022002000210e2a002e00900089
:104ff0000ef3070010002000000f7800a10037001a
:1050000022002000410e2a002e00900007f3070026
:1050100010002000000f78009a00370022002000c6
:10502000610e2a002e00900000f3070010002000ff
:10503000000f78009300370022002000810e2a0024
:105040002e009000f9f2070010002000000f7800f9
:105050008c00370022002000a10e2a002e009000b4
:10506000f2f2070010002000000f780085003700e2
:1050700022002000c10e2a002e009000ebf2070053
:1050800010002000000f78007e0037002200200072
:10509000e10e2a002e009000e4f20700100020002c
:1050a000000f78007700370022002000010f2a004f
:1050b0002e009000ddf2070010002000000f7800a5
:1050c0007000370022002000210f2a002e009000df
:1050d000d6f2070010002000000f780069003700aa
:1050e00022002000410f2a002e009000cff207007e
:1050f00010002000000f780062003700220020001e
:10510000610f2a002e009000c8f207001000200056
:10511000000f78005b00370022002000810f2a007a
:105120002e009000c1f2070010002000000f780050
:105130005400370022002000a10f2a002e0090000a
:10514000baf2070010002000000f78004d00370071
:1051500022002000c10f2a002e009000b3f20700a9
:1051600010002000000f78004600370022002000c9
:10517000e10f2a002e009000acf207001000200082
:10518000000f78003f0037002200200001102a00a5
:105190002e009000a5f2070010002000000f7800fc
:1051a000380037002200200021102a002e00900035
:1051b0009ef2070010002000000f78003100370039
:1051c0002200200041102a002e00900097f20700d4
:1051d00010002000000f78002a0037002200200075
:1051e00061102a002e00900090f2070010002000ad
:1051f000000f78002300370012002000810b2a00e6
:105200002e00900089f207000000eb00000f7800ec
:105210001c00370012002000810b2a002e00900095
:1052200082f207000000eb00000f78001500370045
:1052300012002000810b2a002e0090007bf2070054
:105240000000eb00000f78000e0037001200200075
:10525000810b2a002e00900074f207000000eb0082
:10526000000f7800070037002200200081102a007c
:105270002e0090006df2070010002000000f780053
:10528000000000001e0078000080fa000000060008
:105290000600fa0010079800210798001e009000f1
:1052a0006101b9000080eb008080eb00020040004b
:1052b000838048002202200003002000820f50005b
:1052c000838f580019013e00006001002200370062
:1052d000280037002e003700340037003a0037002e
:1052e00040003700460037004c00370052003700be
:1052f000580037005e003700640037006a0037004e
:1053000070003700760037007c00370082003700dd
:10531000880037008e003700940037009a0037006d
:10532000a0003700a6003700ac003700b2003700fd
:10533000b8003700be003700c4003700ca0037008d
:10534000d0003700d6003700dc003700e20037001d
:10535000e8003700ee00370012002000810b2a0021
:105360002e00900031f207000000eb00000f7800e3
:10537000ee00370022002000a1102a002e0090002d
:105380002af2070010002000000f7800e700370025
:1053900012002000810b2a002e00900023f207004b
:1053a0000000eb00000f7800e000370062002000f2
:1053b000a10c2a002e0090001cf207002000200003
:1053c000000f7800d900370062002000010d2a008c
:1053d0002e00900015f2070020002000000f78003a
:1053e000d200370012002000810b2a002e0090000e
:1053f0000ef207000000eb00000f7800cb00370032
:1054000012002000810b2a002e00900007f20700f6
:105410000000eb00000f7800c400370012002000ed
:10542000810b2a002e00900000f207000000eb0024
:10543000000f7800bd00370042002000c1102a0094
:105440002e009000f9f1070030002000000f7800d6
:10545000b60037004200200001112a002e00900003
:10546000f2f1070030002000000f7800af00370095
:105470003200200041112a002e009000ebf10700bd
:1054800020002000000f7800a80037002200200034
:10549000810d2a002e009000e4f10700200020007a
:1054a000000f7800a10037004200200071112a008f
:1054b0002e009000ddf1070030002000000f780082
:1054c0009a00370042002000b1112a002e009000ff
:1054d000d6f1070030002000000f7800930037005d
:1054e00042002000f1112a002e009000cff10700a9
:1054f00030002000000f78008c00370022002000d0
:1055000031122a002e009000c8f107003000200060
:10551000000f7800850037002200200051122a0079
:105520002e009000c1f1070010002000000f78004d
:105530007e0037002200200071122a002e00900009
:10554000baf1070010002000000f78007700370044
:105550002200200091122a002e009000b3f10700d3
:1055600010002000000f780070003700620020005b
:10557000b1122a002e009000acf10700200020009c
:10558000000f7800690037002200200011132a0064
:105590002e009000a5f1070030002000000f7800d9
:1055a000620037002200200031132a002e009000f4
:1055b0009ef1070010002000000f78005b0037000c
:1055c0002200200051132a002e00900097f10700be
:1055d00010002000000f7800540037002200200047
:1055e00071132a002e00900090f107001000200097
:1055f000000f78004d00370022002000610d2a00c6
:105600002e00900089f1070010002000000f7800a4
:10561000460037002200200091132a002e0090003f
:1056200082f1070030002000000f78003f003700b3
:1056300022002000b1132a002e0090007bf1070009
:1056400010002000000f78003800370022002000f2
:10565000d1132a002e00900074f1070010002000e2
:10566000000f78003100370022002000f1132a00db
