:020000040000fa
:080000000002040000000000f2
:020000040000fa
:04000800d80200001a
:020000040000fa
:04000c00d802000016
:020000040000fa
:04001000d802000012
:020000040000fa
:04001400d80200000e
:020000040000fa
:04001800d80200000a
:020000040000fa
:04001c00d802000006
:020000040000fa
:04002000d802000002
:020000040000fa
:04002400d8020000fe
:020000040000fa
:04002800d8020000fa
:020000040000fa
:04002c00d8020000f6
:020000040000fa
:04003000d8020000f2
:020000040000fa
:04003400d8020000ee
:020000040000fa
:04003800d8020000ea
:020000040000fa
:04003c00d8020000e6
:020000040000fa
:04004000d8020000e2
:020000040000fa
:04004400d8020000de
:020000040000fa
:04004800d8020000da
:020000040000fa
:04004c00d8020000d6
:020000040000fa
:04005000d8020000d2
:020000040000fa
:04005400d8020000ce
:020000040000fa
:04005800d8020000ca
:020000040000fa
:04005c00d8020000c6
:020000040000fa
:04006000d8020000c2
:020000040000fa
:04006400d8020000be
:020000040000fa
:04006800d8020000ba
:020000040000fa
:04006c00d8020000b6
:020000040000fa
:04007000d8020000b2
:020000040000fa
:04007400d8020000ae
:020000040000fa
:04007800d8020000aa
:020000040000fa
:04007c00d8020000a6
:020000040000fa
:04008000d8020000a2
:020000040000fa
:04008400d80200009e
:020000040000fa
:04008800d80200009a
:020000040000fa
:04008c00d802000096
:020000040000fa
:04009000d802000092
:020000040000fa
:04009400d80200008e
:020000040000fa
:04009800d80200008a
:020000040000fa
:04009c00d802000086
:020000040000fa
:0400a000d802000082
:020000040000fa
:0400a400d80200007e
:020000040000fa
:0400a800d80200007a
:020000040000fa
:0400ac00d802000076
:020000040000fa
:0400b000d802000072
:020000040000fa
:0400b400d80200006e
:020000040000fa
:0400b800d80200006a
:020000040000fa
:0400bc00d802000066
:020000040000fa
:0400c000d802000062
:020000040000fa
:0400c400d80200005e
:020000040000fa
:0400c800d80200005a
:020000040000fa
:0400cc00d802000056
:020000040000fa
:0400d000d802000052
:020000040000fa
:0400d400d80200004e
:020000040000fa
:0400d800d80200004a
:020000040000fa
:0400dc00d802000046
:020000040000fa
:0400e000d802000042
:020000040000fa
:0400e400d80200003e
:020000040000fa
:0400e800d80200003a
:020000040000fa
:0400ec00d802000036
:020000040000fa
:0400f000d802000032
:020000040000fa
:0400f400d80200002e
:020000040000fa
:0400f800d80200002a
:020000040000fa
:0400fc00d802000026
:020000040000fa
:04010000d802000021
:020000040000fa
:04010400d80200001d
:020000040000fa
:04010800d802000019
:020000040000fa
:04010c00d802000015
:020000040000fa
:04011000d802000011
:020000040000fa
:04011400d80200000d
:020000040000fa
:04011800d802000009
:020000040000fa
:04011c00d802000005
:020000040000fa
:04012000d802000001
:020000040000fa
:04012400d8020000fd
:020000040000fa
:04012800d8020000f9
:020000040000fa
:04012c00d8020000f5
:020000040000fa
:04013000d8020000f1
:020000040000fa
:04013400d8020000ed
:020000040000fa
:04013800d8020000e9
:020000040000fa
:04013c00d8020000e5
:020000040000fa
:04014000d8020000e1
:020000040000fa
:04014400d8020000dd
:020000040000fa
:04014800d8020000d9
:020000040000fa
:04020800d802000018
:020000040000fa
:04020c00d802000014
:020000040000fa
:04021000d802000010
:020000040000fa
:04021400d80200000c
:020000040000fa
:04021800d802000008
:020000040000fa
:04021c00d802000004
:020000040000fa
:04022000d802000000
:020000040000fa
:04022400d8020000fc
:020000040000fa
:04022800d8020000f8
:020000040000fa
:04022c00d8020000f4
:020000040000fa
:04023000d8020000f0
:020000040000fa
:04023400d8020000ec
:020000040000fa
:04023800d8020000e8
:020000040000fa
:04023c00d8020000e4
:020000040000fa
:04024000d8020000e0
:020000040000fa
:04024400d8020000dc
:020000040000fa
:04024800d8020000d8
:020000040000fa
:04024c00d8020000d4
:020000040000fa
:04025000d8020000d0
:020000040000fa
:04025400d8020000cc
:020000040000fa
:04025800d8020000c8
:020000040000fa
:04025c00d8020000c4
:020000040000fa
:04026000d8020000c0
:020000040000fa
:04026400d8020000bc
:020000040000fa
:04026800d8020000b8
:020000040000fa
:04026c00d8020000b4
:020000040000fa
:04027000d8020000b0
:020000040000fa
:04027400d8020000ac
:020000040000fa
:04027800d8020000a8
:020000040000fa
:04027c00d8020000a4
:020000040000fa
:04028000d8020000a0
:020000040000fa
:04028400d80200009c
:020000040000fa
:04028800d802000098
:020000040000fa
:04028c00d802000094
:020000040000fa
:04029000d802000090
:020000040000fa
:04029400d80200008c
:020000040000fa
:04029800d802000088
:020000040000fa
:04029c00d802000084
:020000040000fa
:0402a000d802000080
:020000040000fa
:0402a400d80200007c
:020000040000fa
:0402a800d802000078
:020000040000fa
:0402ac00d802000074
:020000040000fa
:0402b000d802000070
:020000040000fa
:0402b400d80200006c
:020000040000fa
:0402b800d802000068
:020000040000fa
:0402bc00d802000064
:020000040000fa
:0402c000d802000060
:020000040000fa
:0402c400d80200005c
:020000040000fa
:0402c800d802000058
:020000040000fa
:0402cc00d802000054
:020000040000fa
:0402d000d802000050
:020000040000fa
:0402d400d80200004c
:020000040000fa
:0402d800d802000048
:020000040000fa
:0402dc00d802000044
:020000040000fa
:0402e000d802000040
:020000040000fa
:0402e400d80200003c
:020000040000fa
:0402e800d802000038
:020000040000fa
:0402ec00d802000034
:020000040000fa
:0402f000d802000030
:020000040000fa
:0402f400d80200002c
:020000040000fa
:0402f800d802000028
:020000040000fa
:0402fc00d802000024
:020000040000fa
:04030000d80200001f
:020000040000fa
:04030400d80200001b
:020000040000fa
:04030800d802000017
:020000040000fa
:04030c00d802000013
:020000040000fa
:04031000d80200000f
:020000040000fa
:04031400d80200000b
:020000040000fa
:04031800d802000007
:020000040000fa
:04031c00d802000003
:020000040000fa
:04032000d8020000ff
:020000040000fa
:04032400d8020000fb
:020000040000fa
:04032800d8020000f7
:020000040000fa
:04032c00d8020000f3
:020000040000fa
:04033000d8020000ef
:020000040000fa
:04033400d8020000eb
:020000040000fa
:04033800d8020000e7
:020000040000fa
:04033c00d8020000e3
:020000040000fa
:04034000d8020000df
:020000040000fa
:04034400d8020000db
:020000040000fa
:04034800d8020000d7
:020000040000fa
:100400006f8521000e7f22000e0188000000000091
:10041000000020000000e000020032000001200087
:100420002002880014000700d80007000000e00048
:1004300003003a0020ac2600010020000200370033
:100440000000200001002000810f70000100320038
:1004500014000700000020000000e000020032004d
:100460000000020000000000084c02000000000034
:100470000040da000000fe004440a9008043200054
:100480000000e0000300320000002000a00188000e
:100490004440a800000006008a1f78008b1f7800e7
:1004a0000000060091018800800478000000eb0045
:1004b0001a003700e284440032a0b4009905ba0063
:1004c000e284440032a0b4009906ba00e2844400f9
:1004d00032a0b4000006eb00476fde00fd07b2005b
:1004e000636ce10003003a00ebff07000000eb0043
:1004f0000a003700606ce10004003a00005deb0088
:100500008b05e900fdff3e00040037006168e10053
:10051000010032000086eb000b00070019c7ba008b
:100520001905ba000e04e00003003a000a00e000da
:10053000e0ff3a0000000600fe07b2009e018800be
:100540008a047800f5ff3700395dba008b05e900b1
:100550000c003200295dba008b05e900080032006a
:100560000c00e00003003a00e284440032a0b40032
:10057000f5ff370019ddba008b05e900faff3a00f4
:100580008904e800e184440032a0b40000000600c1
:10059000000000000000000000000000000000005b
:1005a000000000000000000000000000000000004b
:1005b0000040da000000fe000a00fa0011002000ee
:1005c000b1bf9f00c0bf9f006a8057005d1a07003f
:1005d0004fb897000080fa00000006000a00fa00f9
:1005e000e20f500034003e0090c28000e10f500046
:1005f00003003200e20f500011003a000c003700f7
:10060000032220000300e00001003a000040da006d
:100610002002e200020035002822ef0021e2a800bb
:100620002342ab000d003a002342a8000b00370024
:10063000032320000300e00001003a000040da003c
:100640003002e200020035003822ef0031e2a8005b
:100650003342ab0001003a003342a8008201780027
:100660000b0037003102fb00e10f500004003a009c
:100670002322ab00feff3a0024118800030037005c
:100680003322ab00feff3a00a41188008301e90089
:100690000300e000f3ff3a00e10f500003003a00ce
:1006a0002302ab00feff32000b0037003302ab0029
:1006b000feff32000800370033002000b3bf9f0068
:1006c000c0bf9f00d1bf9f00e2bf9f006a8057005c
:1006d0001e1a07006fb99700020078000080fa0028
:1006e000000006000a00fa0051002000b1bf9f0080
:1006f000c0bf9f006a805700161a07005fb89700b6
:100700000080fa0000000600889fbe008004780088
:10071000a0c280000000e00004003a000e000700c4
:100720000084eb000000e00008003500a8c2800053
:100730000900e0000500320009004400060007003f
:100740000000e00001003d000084eb00080078009c
:100750004f04be0000000600800078000100e000a9
:1007600003003a0000002000a0c28800000005003d
:100770000080eb0002002000828f500002003e004b
:10078000a1c288000000eb00000006000000050088
:100790002800fa00889fbe008a9fbe008c9fbe0082
:1007a00007067800878669000c003b000304780088
:1007b0008704780008f0a10009f0a100840f500020
:1007c000858f5800860f5900890f5c0003003300a5
:1007d0000cf0a20001003a000cf0a100010107009a
:1007e0006400e1005f003200780147006408e10026
:1007f000610032006c014700748557003200be0072
:100800001201be003a04be001a05be001e0390008d
:10081000be0a90008503530006003d000004fd0061
:100820008104fd000205fd008305fd008703ea0049
:10083000050378000df8a3000400320060041400e2
:10084000e0841c0060051d00e0851d006022b800ea
:100850007d0320000d38e1008006eb000b0039001d
:100860004433dd00f300b200830173003900370028
:10087000848272000d027800e10664008b85d1004d
:100880000a85d3008984d3000884d3008703e90054
:10089000f7ff3b0008004000898048000a0149003a
:1008a0008b81490004003b0060001000e0801800cc
:1008b00060011900e08119000358a300090032000b
:1008c0008d82720084827200610260008301d10017
:1008d0000281d3008180d3000080d3000603e800aa
:1008e0001b0037000348a30017003a000600e00091
:1008f000170034000603e9000d00a30000004800c3
:100900008180480002014900838149000348a30017
:100910000f003a000600e000090034000603e90079
:1009200000004000818048000201490083814900a5
:1009300001003a000003eb000348a300f5ff32007a
:100940006022b80002003700848272006182660073
:100950007800070003f0a1000cf0a70003f0a0004e
:10096000b4003700640147006408e10002003a0067
:100970000df8a300ac003a003200be001201be0028
:10098000ac003700000000000002eb004603370017
:100990008f1fd100580607008f87e9000000e00094
:1009a00000000600809feb00530607008f87e900d8
:1009b0000000e000000006002800fa00889fbe004a
:1009c0008a9fbe008c9fbe0003866b0085000700d7
:1009d0006400e100440032006408e1004a00320093
:1009e0006100e100460032006108e1004900320088
:1009f000ec0647006000b8003d02be003d03be00ab
:100a0000f48657006011b8003d04be003d05be00ed
:100a10007d0320000b0037000000a0008d06e900d8
:100a2000130032000402420085824a0006034b0094
:100a300087834b000000400081804800020149008c
:100a4000838149000802520089825a000a035b0030
:100a50008b835b00f0ff3b000802420089824a0062
:100a60000a034b008b834b008d06e900edff3a0033
:100a70008482720086827200f707b2008782720059
:100a800001003200150020001e0490003e0b900073
:100a900006035400e63fb0000368a30007003200dd
:100aa0000000a7000500a0008301d1000281d3004f
:100ab0008180d3000080d3000603e8008301d100c9
:100ac0000281d3008180d3000080d3000002eb00bc
:100ad0000482d2001700070003f0a1000cf0a70069
:100ae00003f0a00053003700640247006408e100ef
:100af0004d0032003400be003401be00f6ff370066
:100b00006108e100480032006011b8006000b800e0
:100b1000f1ff370003ff270002002000fbff370032
:100b2000801feb00f40507008f87e9000000e0005c
:100b300000000600180020005700200008045300a1
:100b40000d003d000600200097fc2f000740e1004b
:100b50001e00340084827200610260008301d100b3
:100b60000281d3008180d3000080d3000804e80014
:100b7000f8ff3a004700200061046000050474009b
:100b8000040464000d00320061004000e080480071
:100b900060014900e081490003b8a5000700320068
:100ba0000603e8006538e10004003a008301d10043
:100bb0000281d3008180d3000080d300f87f200021
:100bc0000830e10003003500080378006000b80039
:100bd0006011b8004433dd00f300b20083017300fc
:100be00000000600680447000294be000094be00a6
:100bf000fc0447008694be008494be00090078007f
:100c0000060607000800780004060700990078002f
:100c1000814f70000b003b000800be00df0507009d
:100c20004f00b10003003700f3ff2700f2ff2f0051
:100c30006110b9004f06be004f05be004f04be0054
:100c40000080fa00000006000001be001f0007003f
:100c50000470a70003f0a1006509b100160032007e
:100c60000d0035006828e10006003500f0ff2f0078
:100c7000f1ff27000300e00013003b000100280003
:100c80000000050000004000818048008502e90066
:100c9000fcff3a0008003700f88f420002003c00d9
:100ca0008000eb00000005008100d1000080d3002f
:100cb0008502e800fcff3a000300e00002003b0070
:100cc00060001000e080180000000600c70ade0087
:100cd000f107b200f50fb20008003200e1cf420088
:100ce000020032000170a00024000500810f700096
:100cf000010032000408050044000500810f700067
:100d000002003a00140005008502e90000004000de
:100d100081c04800fcff3b000170a00024000500da
:100d20000800fa00889fbe008a9fbe008c9fbe000c
:100d3000a80507006420e100beff3e006220e1003c
:100d4000030032008700350003f8a300b9ff32002a
:100d500003f8a30087003a000e027800c7060700d8
:100d60001e0678000004be000205be007a000700df
:100d70004a030700009fbe000297be000800be00a5
:100d80000a01be0067fe2300e6092a00f567260077
:100d9000d4bc230003ff0700090034003e00be005e
:100da0002e01be006c0007003c030700009fbe0040
:100db0000297be000800be000a01be000300370013
:100dc0000c06e9003e00be002e01be0062000700d6
:100dd0006b000700600007006dfe07000002be0008
:100de0000203be003e00be002e01be00f2fe070060
:100df0000004be000205be000002be000203be00e9
:100e00005f000700009fbe000297be0017042c0081
:100e100006582d0075b62400f4e02c005cfe070097
:100e20003e02be002e03be00550007003707240017
:100e30003608280055a12f00e467220054fe070061
:100e40003e02be002e03be004d00070087082c00a6
:100e5000e6bf2000d5c02900740729004cfe07001a
:100e6000809fbe00829fbe0097fe2b00564124004b
:100e700065352b0094d22b003e00be002e01be0033
:100e80003f00070007032400a62426006501220076
:100e9000d4fe2a003efe07003e02be002e03be0026
:100ea0003700070007052c00f67f2000352b2100b6
:100eb000a4592b0036fe07003e02be002e03be00e2
:100ec0002f0007004f03be004f02be00bafe07000e
:100ed000009fbe000297be000802be000a03be00cb
:100ee000270007000802be000a03be0028fe070014
:100ef0000004be000205be006160b90032060700b2
:100f0000009fbe000297be00b7f22b0006012d0025
:100f100015c6250084ca2000190007000802be007b
:100f20000a03be001afe07000004be000205be0050
:100f30003e00be002e01be0067fe23000600230017
:100f40006022b8000e0007000802be000a03be00bf
:100f50000ffe070037ff370007fe23006022b800ae
:100f60000600050003ff2f00020020006000b8000b
:100f700030ff370010022000f04088002aff3700c1
:100f80002800fa00889fbe008a9fbe008c9fbe008a
:100f900003866b0013ff07000028a30064003a00db
:100fa0000128a30067003a000008a30062003a008d
:100fb0000108a30065003a001e009000be089000e2
:100fc00081064000ed3fb100f4805700ee01900033
:100fd000111ab8008e099000311bb8009e099000cc
:100fe000311cb800511db800f485570046000700b9
:100ff000fe0190003a0007008b85e8003e000700e4
:101000008e09900040000700ee01900034000700b8
:101010008b85e800380007008e099000400007002b
:101020009e0990001b18b800890440000a854800fa
:10103000fe019000340007008b85e80038000700af
:10104000ee019000300007008e0990001b18b800d8
:10105000890440000a8548000a98a30008003a0065
:101060000402420085824a0006034b0087834b003e
:1010700008044c0089844c000a054d008d06e900e7
:1010800084827200850273004c3add008502720092
:101090000100320015002000443ade001400b200c6
:1010a0004538de00cb45dd000b007000c540de009a
:1010b000cb4ddd008b8070004549de00cb55dd0057
:1010c0000b017100c551de000d03780099fe070089
:1010d00003f0a1000cf0a70003f0a000d5fe37003c
:1010e0001b18b8008502400006834800e0834b00cf
:1010f00060044c00070037001b18b80006034000ce
:1011000087834800faff37001b18b80087034000a8
:1011100008844800e0844c0060054d000000060093
:101120001b18b8000804400089844800faff370003
:101130000108a300bcfe3a005800be005801be00e2
:10114000e3ff37000008a300b7fe3a000904780067
:10115000f9ff370000000000889fbe008a9fbe0094
:101160008c1f7800e2050700e905330003866c0058
:101170006450e100240032006420e10027003200c6
:101180006150e100220032006120e10021003200c4
:101190008b854200eb07b1000134b800003ab8007b
:1011a0000804420089844a00013ab8000030b800bf
:1011b0008880400009014a0004003300000040001c
:1011c00081804800020149008b05e900c909dd0062
:1011d000830170000100320013002000c814de00fb
:1011e0004814dd004709de001200b200c808de0026
:1011f000088470007b05070001f0a1000cf0a70037
:1012000001f0a000cb0537006120e100cd053200e0
:101210000801be000200be00f7ff37006150e10088
:10122000fcff3a00c70537001e00fa00889fbe0089
:101230008a9fbe008c9fbe000404be000605be004f
:10124000009fbe000297be006204070004067800fb
:101250000800be000a01be005e0407008406780094
:1012600004002000e003070005003a008d02b300ef
:1012700014002000dc03070001003a00f8866e002d
:101280000802be000a03be00f90007003e00be00cf
:101290002e01be0067fe32000bf0a7000de0a0009b
:1012a00003f0a7000df0a0000d08a300d6003a003f
:1012b0003e02be002e03be0007f0a10037079800d3
:1012c000eb0007000df0a600cf00320001003c004b
:1012d0000dd0a0008d4f760053fe33006000b800a3
:1012e0006011b8006260e100c9003900d1003e0021
:1012f0000d28a300d2003a000df8a3000800320028
:101300000d58a300d80032003e02be002e03be00de
:10131000d70007003e00be002e01be00c000320014
:101320003e00be002e01be006a02470053050700c2
:10133000009fbe000297be000df0a7000d30a60072
:101340000df0a1006d07980067fe2300e6092a0052
:10135000f5672600d4bc23008dfd070009003d0081
:101360003e00be002e01be001400200078050700dc
:101370005e029000009fbe000297be000402e900da
:10138000540798005e0090006100b9000e05070048
:1013900070079800010f9800120f9800230f980013
:1013a0000802be000a03be00f5fe0700da040700cb
:1013b0000006be000100e00002003d0060001000d9
:1013c000e0801800f2ff2700820f5000e08f5800e5
:1013d00083003e000c00be00fb040700300f9800a5
:1013e000410f9800520f9800630f98000800be004c
:1013f0000a01be00c804070040079800f23f200021
:10140000820f5000e08f580005003c0012c02f00f2
:10141000f3ff2f00820f5000838f58000a003d0019
:101420005e0690000c00e0000300320001003c006a
:101430000201ea00020678006000b8006011b800fe
:1014400040079800270037000800be000a01be00d0
:10145000411add004522de00f43fb1008400b100f6
:1014600061030700809fbe00829fbe007e02900045
:101470008e0a90001e0b9000ae0b9000c0fe07007d
:101480003e0a9000ce0a90005e0b9000ee0b90009a
:10149000820107004f03be004f02be00809fbe00c6
:1014a000829fbe000800be000a01be007b0107004b
:1014b0007e0290008e0a90001e0b9000ae0b9000f2
:1014c000affe07004f03be004f02be00b0fc070096
:1014d00067fe230026e42200a5ef2f00f49e2300e0
:1014e000a7fe0700809fbe00829fbe004e009000b6
:1014f0006100b900b404070003f0a2000802be00b6
:101500000a03be00a2fc0700809fbe00829fbe00af
:101510003e00be002e01be0001fe07004f03be00cc
:101520004f02be0096fe07004f03be004f02be00f2
:1015300097fc0700e0030700809fbe00829fbe006b
:101540004d000700ce0690000df0a7008d06ea00c2
:10155000090037003e00be002e01be003e02be0064
:101560002e03be0086fe0700009fbe000297be004d
:101570000800be000a01be003e02be002e03be00ef
:101580000d00a7007efe07000004be000205be009d
:101590008d06d100efff3a006e02900004e0a60035
:1015a000060037000002be000203be003200070042
:1015b00001fd07000004be000205be004f03be008f
:1015c0004f02be006efe07000c027800e004070028
:1015d000ee0690000df0a70003f0a20095fd370085
:1015e000ee06900029000700260007000dd0a70096
:1015f0000dc0a0000de0a7000dc0a2000dc0a60008
:1016000003002000f2ff37001b00070089fd3700b0
:101610000bf8a300020032001e00070019000700ab
:101620000df8a30083fd32000d30a70003f0a200e7
:1016300080fd37000bf8a300f9ff3a00f7ff3700f1
:101640003e02be002e03be0009000700eeff32007e
:1016500001003c000bf0a2000a0007000bf0a600fe
:101660000300200073fd37000a0007006efd3700fd
:1016700001000700c6fc370003ff23006000b8002c
:101680000200050003ff2700fcff370020022000b6
:101690000100370010022000f04088000000060022
:1016a00014002000000037000800fa00889fbe00e8
:1016b0008a9fbe008c9fbe00040678000004be0016
:1016c0000205be00430307006420e1009f003e00c6
:1016d0009b0032006120e1009600320003f0a1007f
:1016e000171b240036582c0005a021000400200000
:1016f000a7fc07000800be000a01be000700350075
:1017000097012400b61f22004544250084d1220001
:10171000300407000004be000205be008006eb0096
:101720000c00a700cf1ede0003f0a1000bf0a1000b
:1017300047fd230006f3250095dc260034882c00a5
:101740000ffe07006022b8000003eb0007fe230035
:101750000c00a60007ff23000dfc0700ee030700a6
:101760000000a7000d00a200170407000c00e00015
:1017700004003a0007fe2300060020006022b800a3
:10178000c600070003f0a200009fbe000297be0043
:1017900097002400060022006022b800f8fd070030
:1017a0000802be000a03be00f9fb0700809fbe00ce
:1017b000829fbe003e00be002e01be00f7f4230053
:1017c00046542b00152d2400a4462800ecfd0700ec
:1017d0004f03be004f02be00edfb07000004be0039
:1017e0000205be0003f0a10067e42300e6092a0019
:1017f000f5672600d4bc230065fc07000800be0086
:101800000a01be00480035000002be000203be000f
:10181000dbfd0700009fbe000297be0087ce2300bd
:10182000f60f28003599260054f92d00d4fd070045
:10183000a7d62b0006422e0085c02d00c499240097
:10184000d3fb07003e02be002e03be00ccfd070006
:1018500067de2300c6232100a586260004432d0051
:10186000cbfb07003e02be002e03be00c4fd0700f6
:10187000a7e52b0056642e00d5b52400b40a2c0031
:10188000c3fb07003e02be002e03be00bcfd0700e6
:1018900077ec230036de210045522a0034062f0063
:1018a000bbfb07003e02be002e03be00b4fd0700d6
:1018b000a7f22b00061a200015a02100a4e12300a6
:1018c000b3fb07003e02be002e03be00acfd0700c6
:1018d00017f823001611210015112100040b210017
:1018e000abfb07003e02be002e03be00a4fd0700b6
:1018f00057fc2b00565525005555250054552500fd
:10190000a3fb07003e02be002e03be009cfd0700a5
:101910000802be000a03be0099fd07000802be00cf
:101920000a03be009afb07000d00a70003f0a20007
:10193000c0fc37000c00a60003ff2300bdfc3700ed
:10194000f3ff2700f2ff2f006110b9000330a00061
:1019500014022000f4408800b6fc37001400fa009e
:10196000889fbe008a9fbe008c9fbe000004be0000
:101970000205be00680047000a90be000890be0045
:10198000a60207000078a3003d003a006100e100d4
:101990003c0032000bf8a3003d003a006400e10077
:1019a000380032006c0347001e009000f03fb10089
:1019b0003602be001603be000008a3000400320079
:1019c0000402420085824a0006034b0087834b00d5
:1019d000100798008e1f78006000b8006011b800f2
:1019e0005c0020006d0120006e0020000200370026
:1019f0008d86e900fc0020000402420085824a0036
:101a000006034b0087834b0000044000818448009c
:101a100002054900838549006060e1001d60ad005a
:101a20000804520089845a000a055b008b855b001c
:101a3000030039001e60ad000802be000a03be00ac
:101a40000c06e900ecff3b000e87e900e8ff3b00d5
:101a50004f07780061026000840278008301d100a2
:101a60000281d3008180d3000080d3001e03900048
:101a700041b3de00f63fb0002efc07006dfc3700de
:101a80000b30a0000800be000a01be0069fc370050
:101a900012022000f240880063fc370007f0a20029
:101aa0003bfb37000800fa00889fbe008a9fbe00fb
:101ab0008c9fbe000004be000205be004502070068
:101ac0006420e10099003e009500320003f0a1007f
:101ad000171a240036582c0005a02100040020000d
:101ae000abfb07000800be000a01be00070035007e
:101af00097002400b61f22004544250084d122000f
:101b0000340307000004be000205be0047fe2300a8
:101b100006f3250095dc260034882c0018fd07000c
:101b200007fe2300060020006022b80003f0a70093
:101b300007f0a00016fb0700f7020700801f7800df
:101b40002103070003f0a200009fbe000297be0021
:101b500097ff2300060022006022b80008fd07005e
:101b60000802be000a03be0009fb0700809fbe00fa
:101b7000829fbe003e00be002e01be00f7f3230090
:101b800046542b00152d2400a4462800fcfc070019
:101b90004f03be004f02be00fdfa07000004be0066
:101ba0000205be0003f0a10067e42300e6092a0055
:101bb000f5672600d4bc23007afb070004003d0033
:101bc00003ff2300020020006000b8004800370037
:101bd0000800be000a01be000002be000203be00f3
:101be000e7fc0700009fbe000297be0027ef2b0016
:101bf00076ab2b0025ea220044722c00e0fc0700a3
:101c0000c7f6230026e82000b5632a00f4ad2a00b9
:101c1000dffa07003e02be002e03be00d8fc07001c
:101c200017fc2b00562b2100d5542e0004902000c9
:101c3000d7fa07003e02be002e03be00d0fc07000c
:101c40000802be000a03be00cdfc07000802be0069
:101c50000a03be00cefa07000004be000205be0063
:101c60003e00be002e01be0007ea230046772b008f
:101c700065072f00948e2700c1fc070047f32b0057
:101c800046f626009590290014842400c0fa070027
:101c90003e02be002e03be00b9fc0700a7f92300d8
:101ca000e6792400e5172a0094152200b8fa070007
:101cb0003e02be002e03be00b1fc0700d7fd2b0084
:101cc00006eb2d00b57f2400549d2d00b0fa0700cf
:101cd0003e02be002e03be00a9fc070007ff230042
:101ce000060020000500200004002000a8fa0700dc
:101cf0000802be000a03be004f00a6000200370023
:101d000007f0a200040037000002fd008102fd0080
:101d10000203fd008303fd0027fb0700c5fb37001e
:101d2000f3ff2700f2ff2f006110b9000330a0007d
:101d300014022000f4408800befb3700889fbe00dc
:101d40008a9fbe0030044200b0844a0030054b0038
:101d500090854b006000b1000898be000a90be005c
:101d60000440e10005c8e10006d0e10007d8e10029
:101d700002003100680040001008e8004f05be0076
:101d80004f04be0000000600889fbe008a9fbe0070
:101d90003004be002005be000418540005985c0005
:101da00006185d0007985d00110020000440e10066
:101db00005c8e10006d0e10007d8e10001003900c4
:101dc0008000eb00108810004f05be004f04be00dd
:101dd000000006001200fa00889fbe008a9fbe0025
:101de0008c9fbe00e0b79f00f1b79f0082bf9f00ad
:101df00093bf9f000605be000404be000000eb0078
:101e0000d0b79f00c0b79f00b0b79f00a0b79f009a
:101e100090b79f000006eb005fb19700cfb097002e
:101e2000820141003fb097000200e00004003d0045
:101e3000370007007e805700c0ff0700030037000f
:101e4000330007007e805700cfff0700dfb6970002
:101e50000d00e0000c0035006fb29700ffb2970054
:101e60000fbb97009fbb97001000200001002000cf
:101e70006011b800000272008182720002037300d8
:101e8000838373001b0007000c06e8000104200098
:101e9000810f5600e0ff3a000d00e00004003d0015
:101ea0000802be000a03be007e805700a3ff0700a1
:101eb0005fa897000000e00005003a001fb29700fd
:101ec000afb297003fb39700cfb397000900070068
:101ed0006fb09700ffb097000fb997009fb99700b8
:101ee0004f06be004f05be004f04be000080fa0042
:101ef000000006000100070000000600a4b79f00d4
:101f0000b5b79f00c6b79f00d7b79f000000060077
:101f10004f09de0082817100b3b79f004f01de00e0
:101f20008180400082807000a1b79f008fb0970031
:101f30004f09de00000040000200700090b79f00d3
:101f40007fa897004f01de008180400082807000f2
:101f500081b79f000d0007004f3ade0000004000ef
:101f600004007000f0af9f00080007000402420068
:101f700085824a0006034b0087834b00dfff070082
:101f80000802be000a03be00000006002fb2970040
:101f9000bfb297004fb39700dfb397000000060071
:101fa000881f780018002000881f780089ff07002c
:101fb0008f87e9004f04780000000600801feb00c7
:101fc00084ff07008f87e90000000600889fbe009d
:101fd0008a9fbe00e00f5000e08f5800e00f5900cc
:101fe000e08f59000c003d006044b8006055b80017
:101ff0000000540081805c0002015d0083815d006f
:10200000180020001500070008003d001800070018
:102010000004eb00050037000004eb000f00070090
:1020200002003d001200070018002000dcff07003e
:102030000800e000060032006022b8006033b800fb
:102040000000520081805a0002015b0083815b0026
:102050004f05be004f04be0000000600e00f520016
:10206000e08f5a00e00f5b00e08f5b00000006008d
:102070006044b8006055b8000402540085825c00da
:1020800006035d0087835d0000000600889fbe0098
:102090008a9fbe008c1f7800e00f5000e08f580030
:1020a000e00f5900e08f59000d003d006044b8007a
:1020b0006055b8000000540081805c0002015d00a2
:1020c00083815d001c0020000820e10009a8e100d8
:1020d0000ab0e1000bb8e1000d003d000800370038
:1020e0000006eb00e00f5200e08f5a00e00f5b00ab
:1020f000e08f5b0006003d006044b8006055b8000a
:102100000402540085825c0006035d0087835d0045
:10211000aaff07000c00e000060032006022b800b1
:102120006033b8000000520081805a0002015b0059
:1021300083815b004f0678004f05be004f04be0050
:1021400000000600889fbe008a9fbe008c1f78009a
:102150000006eb00e00f5000e08f5800e00f590040
:10216000e08f590007003d006044b8006055b8009a
:102170000000540081805c0002015d0083815d00ed
:102180001c002000e00f5200e08f5a00e00f5b00bf
:10219000e08f5b0007003d006044b8006055b80068
:1021a0000402540085825c0006035d0087835d00a5
:1021b0000c00a200190207000c00e000060032002b
:1021c0006022b8006033b8000000520081805a00dd
:1021d00002015b0083815b004f0678004f05be0063
:1021e0004f04be00000006001400fa00889fbe00e5
:1021f0008a9fbe008c9fbe0004067800e80247005c
:102200008292be008092be00050078008300070025
:102210006200e10033003a006000b8006011b800cd
:102220001e0390000c035300f63fb100220035005e
:102230004b0320000b30e1002a003d00fb01200091
:10224000faff2f006154b9006c0147008b05d100e3
:102250000a85d3008984d3000884d3000603e900eb
:10226000faff3b003200be001201be000002640013
:1022700081826400020365008383650005027200a9
:102280000602720007027200160032000884ea009b
:102290008984ea000a85ea008b85ea000000640070
:1022a0008180640002016500838165006022b800be
:1022b0001e0390001ffa0700de03900007f0a7003e
:1022c00003f0a0000082eb000400e0008e0290000a
:1022d0004f06be004f05be004f04be000080fa004e
:1022e0000000060064014700040020003200be0028
:1022f0001201be00f4ff3700889fbe008a9fbe0017
:102300008c9fbe000404be000605be00809fbe0078
:10231000829fbe002f000700040678000800be0060
:102320000a01be002b000700840678004f03be00a0
:102330004f02be008d4f76007fb097001300330030
:10234000f0ff2f008b8f6b0006003b000d06660030
:102350000c00a7000a00370007f0a60010002000bc
:102360000a003700880f5200898f5a008a0f5b00dd
:102370008b8f5b00030039001000200001003e003d
:102380000000200007f0a7000000ea004f06be0092
:102390004f05be004f04be0000000600e48240006e
:1023a0001078a30007003200640240001178a300f7
:1023b0003400be001401be00040032000330a70048
:1023c000000006003500be001501be000330a0006d
:1023d0000000060005ff27000582610007003200ab
:1023e0000428e10001003200240005000600070077
:1023f00001003a004400050004080500020007003f
:10240000f9ff3a00140005006f826100810270003c
:1024100085027100850272000000060080007800cd
:102420005002be005003be004439de00f700b20087
:10243000f37f200003016100090032000218e1006f
:1024400016003a00850172008301730083817300d6
:102450000008200015003a0040002000130037005b
:1024600085017200830173008381730005003a00c7
:1024700004a8be0006a8be00100020000b00370014
:102480000201e9000402420085824a0006034b0073
:1024900087834b000748a300f9ff32000740a000e4
:1024a00004a8be0006a8be002000200080009800fe
:1024b00092009800000006000800fa00889fbe0005
:1024c0008a9fbe008c9fbe000004be000205be00b5
:1024d000c0ff07006420e100d6f93e008a00320008
:1024e0006708240026e42200a5ef2f00f49e2300b5
:1024f0002cf907007a003c000800be000a01be006b
:1025000077082c0056382400d5462400341c2700b8
:102510001ff90700780035000800be000a01be0060
:1025200003f0a10007c923000600200005002000d9
:102530000400200016f90700710035000800be00f5
:102540000a01be0077ff230076542100b552260011
:10255000e42f28008afa070007fe23000600200067
:102560006022b80003f0a70007f0a00088f8070079
:10257000690007000006be009300070003f0a200f8
:10258000009fbe000297be0067fe230006002300e6
:102590006022b8007afa07000802be000a03be00f3
:1025a0007bf80700809fbe00829fbe003e00be00f9
:1025b0002e01be00b7f22b0006012d0015c6250026
:1025c00084ca20006efa07004f03be004f02be000f
:1025d0006ff80700809fbe00829fbe000002be0011
:1025e0000203be0066fa0700009fbe000297be000d
:1025f00017ef2300462a250085f52600c4c12d00cb
:102600005ffa0700c7f72300460e270035fb2600b8
:10261000046e2f005ef807003e02be002e03be00cf
:1026200057fa070007fd23000600200005002000e0
:102630000400200056f807004f03be004f02be0002
:102640004ffa0700809fbe00829fbe003e00be0082
:102650002e01be0007f4230096f92300e5fd2600b5
:102660009480230046fa0700c7fa2300e6182700e3
:1026700025142700341b250045f807003e02be0044
:102680002e03be003efa070007fe230006002000ce
:1026900005002000040020003df80700ffbb970064
:1026a0006fbb9700dfba97004fba9700fbfc07009b
:1026b0000002be000203be004f01be004f00be007c
:1026c000bdf8070007fe2300060020006022b800c6
:1026d0002ff80700610246009d00070055f93700fa
:1026e00003ff270022022000f24088000001eb00d7
:1026f0006000b8004ff937008001eb00f9ff3700a8
:1027000003ff2300f9ff370003f8a30049f9320063
:102710008001eb00f5ff37001400fa00889fbe002f
:102720008a9fbe008c9fbe000004be000205be0052
:10273000680047000a90be000890be0037ff0700ff
:102740000070a7000bf0a100304320009e02900013
:1027500080825200b0fe2f000028e10011003d00f1
:10276000b0fc2f000028e100150034001e09900085
:102770008e0890007e0090000501b0000201d1009b
:102780008180d3000080d3008502e800fbff3a007f
:102790000b00e00027f93b0060001000e08018000b
:1027a00024f93700f0ff2f00f1ff27000b00e000b5
:1027b00020f93b0001002800000020001df937002f
:1027c0006000b8001bf937004f89de0082017800f5
:1027d0001d013700801feb00b30007008f87e90061
:1027e0000000060081002000618055000b003d00c4
:1027f0000b00200061fe2f000100e1001d003400ed
:1028000082817100610164008904d1000884d300d1
:102810000000e800faff3a00710020006100640047
:1028200003007000020060000900320061044400ef
:10283000e0844c000988a500050032008b05e80003
:102840006808e10002003a008904d1000884d3003e
:10285000f20f20000258e10005003d00c75ddd00d9
:10286000f907b200898075000800780000000600b2
:102870000bf827008b007800000005001400fa0018
:10288000889fbe008a9fbe008c9fbe000406780011
:102890000004be000205be00680047000a90be00aa
:1028a0000890be00ddfe07006200e1000800be00e7
:1028b0000a01be00040020000b003a001e02900036
:1028c000e43fb1006e009000fe0090000e09900001
:1028d0009e099000f300b20005fe2300858171007f
:1028e0000bf0a70003f0a000040e7800d1f8370029
:1028f0000004be00f5f807000003be000405be009a
:102900000200be00f1f80700844f750000000600c9
:102910000200be006450e100050036006420e100c2
:10292000020036000968a30001003a000800be005a
:102930000160a0004f0678004f05be004f04be00a6
:1029400000000600f0ff2f00f1ff2700f9ff37001d
:102950001400fa00889fbe008a9fbe008c9fbe00b4
:10296000040678000004be000205be0068004700af
:102970000a90be000890be00a8fe07006200e100b9
:102980000800be000a01be0023003a006e0090005d
:10299000fe0090000e0990009e0990009e0290009b
:1029a00085024600e47f20000428e10005003c0089
:1029b000d4fc2f000428e10008003d0005002000a1
:1029c00001003700f57f200020022000f040880041
:1029d0006000b8006011b8000a0037001400200041
:1029e0000482520007003d008301d1000281d30020
:1029f0008180d3000080d3000402e800faff3a008f
:102a000005002000c42add00f300b20085817100ba
:102a10000bf0a70003f0a00086f83700889fbe00e7
:102a20008a9fbe008c9fbe000404b8000506b80053
:102a30008904460060854e000606b8000a05460077
:102a4000e0854e000706b8008b054600040eb8006e
:102a5000890446000a854e00e0854d00050eb80049
:102a60000a0546008b854e00060eb8008b05460011
:102a70000416b8000a0546008b854e000516b800fe
:102a80008b054600041eb8008b0546000800be00fa
:102a90000a01be004f06be004f05be004f04be0037
:102aa00000000600000000002800fa00889fbe0019
:102ab0008a9fbe008c9fbe000efe970049f807005b
:102ac0006108e1005c0032006200e1005a003e0053
:102ad000540039006408e100520032006c014700e4
:102ae000748557003200be001201be003a04be00d9
:102af0001a05be009e029000be0e90000d8252008c
:102b000017003b000402e80046003a00880f50001e
:102b1000898f58008a0f59008b8f5900410034006b
:102b200064014700780347003200be001201be0076
:102b30003602be001603be0007f0a10003f0a60097
:102b400007f0a0000c70a70011f7070039f8370054
:102b50000000400081804800020149008381490053
:102b60000c00a00008005000898058000a0159009c
:102b70008b81590005003b00080040008980480017
:102b80000a0149008b8149000c00a1000402e90000
:102b9000efff3b0000024000818248000203490031
:102ba000838349001b0032000802520089825a00c8
:102bb0000a035b008b835b004200f80005003700ce
:102bc00000004000818048000201490083814900e3
:102bd0008d06e9000340a600f9ff37006022b80027
:102be0000d037800d3f70700780347004200f9008f
:102bf0000800350002003c000c08a300050032006c
:102c00003602be001603be0007f0a0000c70a7003d
:102c1000dff607005e02900004f0a70003f0a200b8
:102c200004f837002e009000be0090004e01900086
:102c3000de019000fff73700100220000c70a600a4
:102c4000f0408800f8f73700881f78000304780008
:102c50000300e00007003d0060001000e080180065
:102c600060011900e081190002003b0001f02d0015
:102c7000030037000400070008f0a70003f0a000dd
:102c80004f04780000000600889fbe00008270009c
:102c900004027100048271002400320036432000d7
:102ca000c50020008383cf000a0039000541b10030
:102cb0008283cf00070039000541b1008183cf0036
:102cc000040039000541b1008083cf0001003900c4
:102cd0000541b10085c353006022b80012003200e4
:102ce0000a003b0084827200610260008301d1000f
:102cf0000281d3008180d3000080d3000603e80066
:102d00008743e800f7ff3a00070037000000400063
:102d10008180480002014900838149000603e900df
:102d20008743e900f9ff3a0082f707004f04be002d
:102d3000000006008001780002003700b1597800d9
:102d40000201e9000200e000fcff3a00000006007a
:102d5000016321009f02370001632100160c070068
:102d6000800078000080eb000100e00004003500e6
:102d700001632100a0002000960207004f80de00c2
:102d80000000060000017800820178003204e000b3
:102d9000fdff3a0003017800b14178000359780043
:102da0000304e000fcff3a000000060002003700c8
:102db0000204e0000b00320081017800000278007c
:102dc00030417800b14f5100f9ff3200100020006f
:102dd00014427800934f5200030031000080eb0052
:102de000000006000000eb00000006000001780073
:102df000b1417800035978000304e000fcff3a0079
:102e00000000060080007800010178003104e00035
:102e1000fdff3a0000005100000006004f02b00024
:102e2000889fbe008a9fbe008c9fbe008e1f7800c8
:102e3000a0b79f00010478000206be0000077800da
:102e4000880078007c805700c3000700e80060001d
:102e5000b1b79f00000278000430a100e10f5200da
:102e600048003a002400200083fd2f008f8141009c
:102e700008017800afb097000e007800b803070093
:102e8000000778000e00e00007003a006000b8007c
:102e90006011b80080af9f0091af9f00a2af9f006c
:102ea000b3af9f00320037004272dd0082fd2f0079
:102eb0000f014100040241001400be00e4b79f006e
:102ec00041fe07000004be000205be0088af9f005f
:102ed00099af9f00aaaf9f00bbaf9f006fb2970052
:102ee000c4b79f00847e2100d4b79f00fcb79f0029
:102ef0008dbf9f00150037004fb197004200be0004
:102f0000c2b79f00e00f5000e08f58000c00320065
:102f10002dfe07005fb697003c02be002c03be00ea
:102f200017f807000002be000203be000800be0042
:102f30000a01be0016f607000004be000205be002e
:102f40005fb0970068004000d0b79f000e07e9000f
:102f50004240a900e8ff3c007fb697008fbe970073
:102f600088af9f0099af9f00aaaf9f00bbaf9f00a3
:102f70004faa9700dfaa97000c0242008d824a00f8
:102f80004a003700e20f52004e003a0083fd2f0046
:102f90008f81410008017800afb097000e007800e3
:102fa000fe000700000778000e00e00007003a006e
:102fb0006000b8006011b80080af9f0091af9f0023
:102fc000a2af9f00b3af9f00320037004272dd0016
:102fd00081fd2f008f804000048240001400be005d
:102fe000e4b79f00f8fd07000004be000205be0024
:102ff00088af9f0099af9f00aaaf9f00bbaf9f0013
:103000006fb29700c4b79f00827d2100d2b79f00a6
:10301000fcb79f008dbf9f00150037004fb1970090
:103020004200be00c2b79f00e00f5000e08f580082
:103030000c003200e4fd07005fb697003c02be00c2
:103040002c03be00cef707000002be000203be0044
:103050000800be000a01be00cdf507000004be0056
:103060000205be005fb0970068004000d0b79f0027
:103070000e07e9004240a900e8ff3c007fb6970038
:103080008fbe970088af9f0099af9f00aaaf9f00a7
:10309000bbaf9f004fa99700dfa9970000fd2f004d
:1030a0000f004000f10107000c02be000fa89700be
:1030b0009fa897002fa99700bfa99700800207003b
:1030c00013003700e30f520004003a006000b8001c
:1030d0000200200003ff2700080037006000b8004e
:1030e0006011b800e40f520009003a00f0ff2f0011
:1030f000f1ff2f00f2ff2f00f3ff270080af9f00aa
:1031000091af9f00a2af9f00b3af9f0004003700b4
:1031100080af9f0091af9f00a2af9f00b3af9f0011
:103120000fa897009fa897002fa99700bfa9970005
:103130003fb297000400e0000100320003f0a2005b
:103140004f0778004f06be004f05be004f04be007b
:103150004f02b10000000600889fbe008a9fbe009b
:103160008c9fbe0000047800010678009804780067
:10317000890578000b0578008a057800bb46780041
:103180000d00fb008b0107000000e000f9ff3a0092
:10319000d0c2b30080cf560003003a000b05780080
:1031a00081002000050037008000eb00b0c2b300b2
:1031b00080cf560001003a000b0578001a407800d5
:1031c000e2c6b300824f500003003200e2c4b300f5
:1031d000824f500027003a008a0078005141780061
:1031e00010c6b300804f5100040032000000eb0015
:1031f00013c4b300834f51005c003a005141780082
:10320000e0c6b300804f5100040032000000eb0024
:10321000e3c4b300834f510054003a0081047800a6
:1032200080c2b300d94f10000b003a00640545007e
:103230008a057800ba4678000d00fb004f010700b0
:103240000000e000faff3a00f0c5b30080cf56005e
:10325000f7ff3200010037008905780040002000a8
:1032600091c2b3009bcf100040003a008b04e800ed
:103270003e00370092c6b300824f50000300320078
:1032800092c4b300824f50003c003a005a4178008b
:10329000e0c6b300804f5100040032000000eb0094
:1032a000e3c4b300834f510030003a005a41780024
:1032b00060c6b300804f5100040032000000eb00f4
:1032c00063c4b300834f510028003a008a04780099
:1032d000010078003000b300d940780092c6b300f6
:1032e00082cf50000300320092c4b30082cf50005e
:1032f0001e003a008900780051417800e3c6b3000f
:10330000834f510003003200e3c4b300834f5100e8
:1033100016003a005141780093c6b300834f510024
:103320000300320093c4b300834f51000f003a00f2
:103330005141780043c7b300834f5100030032006e
:1033400043c5b300834f510008003a005141780053
:1033500093c7b300834f51000300320093c5b300fd
:10336000834f510001003a008104e8000c00e000a6
:1033700005003200090e78000300370001007800d4
:103380000000a0008a047800090c78004f06be00f7
:103390004f05be004f04be0000000600e88747004e
:1033a000889fbe008a9fbe008c9fbe008e1f780043
:1033b000e0b79f0082047800030478006722b90018
:1033c0000006eb00010037001c002000810178009e
:1033d00000c3b300b14f1000fbff3200000ceb0044
:1033e00038147800880578000005eb002a003700c3
:1033f000840f550016003d007200200011000900e6
:103400000205d8000100e00003003a00e485450011
:10341000801deb008015eb001b06be00446bdd0039
:10342000cc63de00870373004463dd00e179210093
:103430000180520081782100614078000000fb008b
:10344000cf80de00801d430081954b0010003700c7
:103450001000200001002000180c40005894480083
:10346000840f55000b003a00e179210001805200e1
:103470008178210061407800e74f5000050034005a
:1034800010002000010020009b0d4000db9548004b
:103490000a05e8001c002000830678008d017800f2
:1034a000334778008e00fb0062012000e0792100a4
:1034b000f3b79f0084bf9f00f00a070080027800e6
:1034c000ffb197000fba97000500e000c8ff3a006f
:1034d000840f55000100340004057800e0c2b300f9
:1034e000804f570001003a008d06e8000a00e00016
:1034f00029003a000d007800050037000081eb003c
:103500008081eb00180c4100589449001c002000f9
:103510008006780001c3b300b0cf1000f7ff32007f
:103520001d003700840f55001a003d007200200076
:10353000110009000205d8000100e00003003a0074
:10354000e4854500801deb008015eb001b03be00e9
:103550004439dd00cc31de00830171004431dd00ef
:10356000e1792100018052008178210061407800da
:103570000000fb00cf80de00801d410081954900e6
:103580000a05e8000081eb008081eb00180c410087
:10359000589449001c0020000d0778008e06780022
:1035a000bd00fb0062012000e079210084bf9f0084
:1035b000b20a0700800278000fba97000500e00009
:1035c000d8ff3a000c0178007300200011000900b8
:1035d0000305d8000100e000130032000180510013
:1035e000c200dd001b02be008100e90003003300c1
:1035f0000402420085824a00fbff3700848dbe0032
:103600000a054000cf80de00181c10001894180036
:1036100005003700670555007000200001002000fc
:10362000180c400058944800e60f55000400340080
:103630002b00be00e00f5000e08f5800f5ff320075
:103640001800be00420add00ce02de0085027200d4
:103650004202dd00048cbe000c00e00038003200a5
:103660001e40780001c7b300814f500003003200b4
:1036700001c5b300814f500030003a000e067800bb
:10368000dc457800b0c2b30080cf550003003200a3
:10369000d1c2b30081cf550002003a000c06e80009
:1036a00001003700804578006000b8000001eb00a1
:1036b00013003700f20f2e00535f2000820f5000de
:1036c000838f58000d003c00a20020000300200062
:1036d00084bf9f00f5b79f00420e07000d01fb005d
:1036e000cf91de000203b1000380b1000200400070
:1036f00083804800ffb297000fba970012002000a5
:103700000c0778000e067800bc4678008d01fb009f
:103710000303b100e98f5100e6ff3600d3c2b300c6
:1037200083cf550002003a0060001000e0801800ce
:10373000041c400005944800010037000c0178008b
:103740000900e000040032000200e00001003a003d
:103750006fb797008e0c78007200200011000900ee
:103760000205d8004f0778004f06be004f05be0087
:103770004f04be008f00b100000006000003b1003e
:103780000b0035009000b100080034008000b1004b
:10379000070035009001b100040034007000b10052
:1037a000030035009001b10001003c00100005004d
:1037b000000005006900e100040035006d00e10033
:1037c000030034000002b1000100320000000500d7
:1037d00010000500889fbe008a1f78000004be000c
:1037e000c900900069009000808f500005003900ea
:1037f00009007800970a07008080eb000000e000d5
:1038000016003500084578004900900008587800f7
:10381000c00498001900780000b8a30004003a0022
:1038200000a8a30007003200ea4f540005003a0048
:1038300009007800250907008080eb000000e00007
:1038400006003a0000c020001900600002003200ab
:1038500049009000e00498008a80fb000100780095
:103860004f0578004f04be00000006000400fa0077
:10387000889fbe0000047800e60444001900780028
:103880008000d000c508de00f47f2000848f500047
:103890000e003a00ef006000200020006b003a00ac
:1038a000a80090000100e00068003a009800900035
:1038b0000100e00065003a00100020001800e00060
:1038c0006200320020002000600037000100e000ac
:1038d0000a003a0008007800c2bf9f00d3bf9f00d3
:1038e000060a0700800078000000eb004fb997003f
:1038f000dfb997000100e00054003c004f88de0073
:103900000281400083014800e07f2000800f5100c9
:10391000e08f59000d0034001900e00004003d0064
:103920006000b8000200200003ff2f0003003700f2
:103930006000b8000200200003ff2700009cbe00ca
:103940000294be001000200040003700e00f51003c
:10395000e08f5900050034004411dd00f00028001c
:1039600019006000800c71003700370019007800e2
:1039700004002800040260006f0060000040a00006
:10398000800c7800d0fc2f00f1ff2f00800f510039
:10399000818f590006003d00840c78000000eb0088
:1039a0002004980010049800000ceb00270037005a
:1039b0006f0141000600370008007800500c7800c5
:1039c000e40044001108780099087800800ceb00ae
:1039d000700051007001410001fe2f008280400004
:1039e000ef8f4000f4ff35000000ea0015003200c0
:1039f0008800780070011000d1027800822add0072
:103a0000980178008019de00038c72006404440081
:103a100098027800822add00910178008019de008a
:103a200083887200990078000209dd009800780010
:103a30008008de00010c7100990078000008de00ab
:103a4000800c7800990c72000080eb004f04be00df
:103a50000080fa00000006000a00fa00881f7800c3
:103a600000047800880078006c805700b4bf9f0085
:103a7000c5bf9f00d6bf9f00e7bf9f008e00070015
:103a80003fba9700cfba97005fbb9700efbb970094
:103a90003800be002801be0039f50700009cbe00ba
:103aa0000294be002fb99700cf91de000800780085
:103ab0006eff07004f0478000080fa000000060047
:103ac0000800fa00889fbe008a1f780090bf9f0000
:103ad000a1bf9f00b2bf9f00c3bf9f000404be00f0
:103ae000e00f5200e08f5a006b0032006022b800f5
:103af0006033b800a6f307000000e0006600320063
:103b0000e00f5400e08f5c0031003d0060041400c1
:103b1000e0841c000005eb006000b80002002000fb
:103b200003ff23000808a30006003200c352dd0093
:103b300004742100048242005403be004402be000b
:103b40000ff507008904d1000884d300e00f54006a
:103b5000e08f5c00030032000a05e800e80f550022
:103b6000f0ff3a000002be000203be006000b80091
:103b70000200200003ff23008ff307000002be00b5
:103b80000203be006e805700b3ff07000000e00094
:103b900039003d00e00f5400e08f5c003e00320031
:103ba00034f42600c54a26008662200087ac200037
:103bb0006e805700a8ff07000000e0002e003d00c7
:103bc00061045400e0845c00f5ff3a002e003700e9
:103bd0000005eb006000b8000200200003ff230096
:103be0000808a30006003200c352dd00047421005f
:103bf000048242005403be004402be00e0f4070009
:103c00008984d1000884d300e00f5400e08f5c0069
:103c1000030032000a05e800e80f5500f0ff3a0003
:103c20000002be000203be006e8057008aff07003c
:103c30000000e00010003d00e00f5400e08f5c0049
:103c400015003200c4f32b0035f72700d6fd240001
:103c5000575127006e8057007fff07000000e000eb
:103c600005003d0061045400e0845c004240a9006e
:103c7000f4ff3c00040037000000e00002003a00be
:103c80000001200003003700e10f500002003a005d
:103c900080002000650907001fb89700afb89700a3
:103ca0003fb99700cfb997004f0578004f04be0089
:103cb0000080fa0000000600889fbe000004780023
:103cc000e68440001900d0004500de00f27f2000ad
:103cd000820f500010003a00000ceb0099047800ad
:103ce0006f816400200020001b003a002101900039
:103cf0000200e00018003a00110190000200e0000c
:103d000015003a00100020001100e00012003200ff
:103d100020002000100037000000e00004003a00fe
:103d200001007800f50807000000e00008003c00f2
:103d3000f20028001901610001fe2300810c7100ce
:103d400021c02f00010c40000080eb000200370072
:103d5000000ceb000000eb004f04be00000006006a
:103d6000f4874700889fbe008a9fbe008c9fbe00dc
:103d70008e1f780080b79f00c2b79f0003047800b1
:103d80006726b9000000eb008005eb00010037005a
:103d90001b002000610ab8006101b8000403410063
:103da00096b79f000000e800e441790002c3b30029
:103db00082cf5100f6ff3200000ceb00381478007f
:103dc000080578000007eb008004eb002c003700aa
:103dd0008c8f54001b003d0074002000110009006e
:103de0008404d800010278000400e00003003a00d7
:103df00064054500001deb000015eb007fb0970047
:103e00008fb89700604279000402fb00cfa2de0069
:103e10000403b1000580b100a200200003002000cf
:103e20001a00be00e4b79f00d5b79f006d0c0700d5
:103e30006fb29700dfb29700001d420001954a0063
:103e40000c0037001200200003002000180c410075
:103e5000589449008c8f540007003a00e6c07a005d
:103e600040c3b30080cf5000030034001a0d41005e
:103e70005a9549008904e8000e07e8001b0020005d
:103e80009fb097006108b800f0b79f0081bf9f0006
:103e90006171b8000200400083804800a0b79f0015
:103ea000b1b79f008006780002037800ffb2970048
:103eb00062c27a008403fb000703b100e98f53005c
:103ec000c3ff36002fb097008c8f540001003400e0
:103ed0008c047800e1c2b300814f520001003a0027
:103ee0008006e8000000eb000900e0000700320057
:103ef0000007eb00330037000081eb008081eb000e
:103f0000180c4100589449001b002000616ab80059
:103f10006101b8000203420083834a000000e80008
:103f20006441790001c3b300814f5100f2ff3200b8
:103f300086067800eeff37008c8f54001f003d008e
:103f400074002000110009008404d80001027800e8
:103f50000400e00003003a0064054500001deb008a
:103f60000015eb002fb09700bfb0970062427800b9
:103f70000402fb00cfa2de000403b1000580b10003
:103f8000a2002000030020001a00be00e4b79f003a
:103f9000d5b79f00130c07006fb29700dfb29700f0
:103fa000001d420001954a008904e8000081eb00f1
:103fb0008081eb00180c4100589449000e07e8007e
:103fc0001b0020006169b8006170b800a0b79f00b5
:103fd000b1b79f00000341008183490006027800c9
:103fe000e24278008502fb000503b100e98f520030
:103ff000d1ff36000b067800060778007d00200010
:10400000110009008d04d8000100e0001200320008
:10401000818656001a01be00e00f5100e08f590062
:10402000090032000d00e9004200dd00817f21001f
:10403000010040001000be00e6b79f00e90b07003a
:10404000008dbe006fb29700898446006168b90098
:10405000181c1000189418008006eb0005003700ab
:10406000e78454007200200003002000180c410077
:1040700058944900e68f54000c0034006168b80081
:10408000c2ff2f00f3ff2f00e4b79f00d50b0700fe
:10409000800045001100be008d06e8006fb2970059
:1040a000e00f5000e08f5800edff32000b00e00001
:1040b000370032001e40780051c6b300814f5000d7
:1040c0000300320051c4b300814f50002f003a006a
:1040d0000e057800da457800b0c2b30080cf5500f5
:1040e00003003200d1c2b30081cf550002003a0074
:1040f0000a05e80001003700804578008006eb00e3
:104100006000b8000006eb0010003700f20f2e0030
:10411000535f2000820f5000838f580009003c003d
:10412000a200200003002000ae0b07000e01fb00e0
:10413000cf91de000203b1000380b1000200400015
:10414000838048008d06e8001c0020006153b80001
:104150006169b80006024100664779000e01fb0064
:104160000203b100e90f5100e8ff3600d2c2b300ec
:1041700082cf550002003a0060001000e080180075
:10418000180c400058944800010037000b067800d6
:10419000cfb197000300e000050032000c00e00002
:1041a00001003a000fb297004fb39700040b78005c
:1041b00072002000110009008204d8004f07780027
:1041c0004f06be004f05be004f04be004f01b100b8
:1041d00000000600881f78000204780008017800bb
:1041e000d4fa0700080040004f04780000000600e1
:1041f0000000fa00881f780000047800ea81570068
:104200003fb9970088007800a00e22000700070041
:104210000000e000020035008040eb0001747800ef
:104220004f0478000080fa00000006006200fa00e7
:10423000889fbe008a1f78000005780081047800fe
:10424000020478008300780080f92f000f004000fe
:10425000320a07009a979f00a9979f000000eb0081
:10426000b09f9f001885fb008a04fb000a05ea0046
:104270004f55de0050022000808f54000d003200a8
:10428000e10f55000b003a000a0178008800780021
:104290002f9097009f91970003000100a0979f0027
:1042a0000000e0008e0032003f9897000000e80018
:1042b000b09f9f000a04440050022000808f5400e9
:1042c000040032000900e000e6ff3a003f98970042
:1042d000840037000000eb00909f9f00809f9f00ac
:1042e000f0979f00e0979f00d0979f00c0979f0096
:1042f00007003700c182210001005000000040008b
:104300000182210061007800df98970001007000b1
:10431000d09f9f0088047800090478003845780011
:104320008a00fb00c08221005e0707000000e00059
:10433000f0ff3a00a1c2b300814f55000e003a00d1
:10434000cf8897000180e900c08f9f00100078009f
:10435000c09f9f000000e00005003d000000ea0053
:10436000c09f9f005f9897000020a000d09f9f00f3
:104370000904e8000f003700c09f9f000000eb0019
:1043800005003700f2ff2700820f500002003200c4
:104390006a01b900028040000904780088047800ae
:1043a000b900fb000103b100e98f5000f5ff3600b2
:1043b000c09f9f00e0c2b300984f1000020032007f
:1043c0000080eb0019003700a0c2b300d84f1000e6
:1043d00007003a00cf8897000180e900c08f9f0056
:1043e00010007800a09f9f000804e800100037002c
:1043f0000000eb00a09f9f008800780005003700b8
:10440000f3ff2700830f5000020032006a02b90058
:104410000400410001047800880078003101fb00ad
:104420000203b100e90f5100f5ff3600a09f9f0085
:10443000984478008900fb0080812100190707005b
:104440000000e000020032000804e800010037002c
:104450008044eb00c97f9f0080c6b30080cf54002a
:1044600004003a0098cf14000a003a006640500059
:1044700006003700c0c6b30080cf540005003a00e4
:1044800098cf140003003a0065404000c07f9f00b1
:104490000804e8001801fb00e3fb2f008f814100b6
:1044a00081f92f008f804000a0f92f000f004000fd
:1044b000100007000000e00009003a00e1fb2f00b7
:1044c0008f804000a0f92f000f004000d7080700a0
:1044d0000000e000020035000804e80061ff37003a
:1044e0000080eb004f0578004f04be000080fa000a
:1044f00000000600889fbe008a1f78000004780034
:1045000070c6b300804f510021003c0000c0e9009c
:10451000804f5100cd003d0072405000804f51004f
:104520002a0132000d003c006c405000804f5100c9
:104530003d013c0000c0e900804f5100c3003d0038
:1045400050c2b300804f5100340132007c40400023
:10455000804f510034013a00bc00370010c6b30050
:10456000804f5100b900320004003c006940500007
:10457000804f51002c013a006600370030c6b3006e
:10458000804f5100180032000040e8000900370059
:1045900000c7b300804f5100fe00320008003c000d
:1045a00000c0e900804f5100c700320059003c00b4
:1045b00065405000804f51001b013a000f0037004a
:1045c00050c7b300804f510052003200634040009a
:1045d000804f51004f00320065405000804f510025
:1045e00011013a00f90037001181e90082087800d2
:1045f000780090001241780009013700286090008f
:10460000c4c6b300844f500007003a00110278007e
:1046100064005200800878001002be004fabde003c
:10462000860378001100370014c7b300844f500090
:1046300003003200a4c6b300844f500006003a00c5
:104640001102780068005200800878003002be0035
:104650002003be00050037001180e90080087800c3
:1046600010027800cfa2de00612bb900049cbe00ce
:104670000694be002860900081c6b300814f5000b0
:104680000d00320021c6b300814f500004003a00f3
:104690000402fb00cfa2de00612bb9000800370046
:1046a00041c7b300814f500003003200e6c0400014
:1046b000814f500004003a00cfa2de00612bb90008
:1046c000049cbe000694be003802be002803be0053
:1046d00078009000d1c2b300e00f5200e08f5a0082
:1046e000e00f5b00e08f5b00080035008810900051
:1046f0000118a30002003200b1c2b300030037006a
:104700000108a3004c00320001c2b300817178009f
:104710004700370028609000c4c6b300844f5000a3
:1047200006003a0011027800640052008008780008
:104730001002be006033b8001100370014c7b30088
:10474000844f500003003200a4c6b300844f5000d1
:1047500006003a00110278006800520080087800d4
:104760003002be002003be00050037001180e900c2
:1047700080087800100278008002eb006033b800f7
:10478000049cbe000694be002860900081c6b30061
:10479000814f50000d00320021c6b300814f500000
:1047a00004003a000482fb008002eb006033b80092
:1047b0000800370041c7b300814f500003003200aa
:1047c000e6c04000814f500004003a008002eb0038
:1047d0006033b800049cbe000694be000810900030
:1047e0000038a300140032003802be002803be00c7
:1047f000e00f5200e08f5a00e00f5b00e08f5b009b
:104800000d00320080c7b300804f5100030032001a
:1048100080c5b300804f510007003a007800900037
:1048200001c3b300817178000000e8008271780054
:104830000000e8007004980078009000808141003a
:1048400063049800824078005d0037001102780010
:1048500068005200800878003002be002003be00cd
:10486000049cbe000694be00b80090007800900042
:104870000100e00002003d00d1c2b3000800370093
:10488000881090000118a30002003200b1c2b300ea
:10489000030037000108a3000400320001c2b30086
:1048a000817178000000e8007004980078009000a2
:1048b00080814100630498008200fb0008007800ba
:1048c000650007006000370028619000c3c6b30090
:1048d0001180e900834f5100220032000a003c00a1
:1048e000e4c15100834f51002500320083c1e8002c
:1048f000834f510013003200e8c15100834f510033
:104900001e003a000a00370043c7b300834f51002e
:104910001b003200e6c14100834f510018003200f5
:10492000e9c15100834f510014003a0005003700df
:104930008008780010007800485c900008487800f3
:10494000410037008008780010007800680a900065
:10495000cfa2de00612bb9000498be000690be0015
:10496000390037008008780010007800680990004e
:10497000cf91de000288be00330037001180e900cd
:104980008008780010007800680c90000808780013
:104990002d0037001180e9008008780010027800af
:1049a000cfa2de00612bb900049cbe000694be00bd
:1049b00078009000808141006304980081c7b300b3
:1049c000080078006a0607001f0037001180e90020
:1049d00080087800100578006a049800d80c9000d0
:1049e0000900e00004003d000a00780005f9070016
:1049f0008004780007003700090178008000eb0090
:104a00000a0078009d0507000000e0000100320068
:104a10008a045000190c98000b00370078009000b1
:104a20008271780006003700780090008081410094
:104a30000204e00001003a0052c2b300824978004b
:104a40000000e800700498000000eb004f057800bb
:104a50004f04be00000006002f04b000889fbe0077
:104a60008a9fbe008c9fbe008e1f780000077800d2
:104a700081f79f003e04be002e05be005e08900038
:104a80000000e00002003d00600020000a00370046
:104a90000000e00009003a0070c6b3008ff09700f4
:104aa00080cf50000300320070c4b30080cf5000ac
:104ab00002003a0010002000500f98008e0078008d
:104ac00020fb2f000f0040007bfc0700e20f50008e
:104ad0000a003a0030002000100f9800b1c9b3005e
:104ae0000ff197008140410040692100e1cf500063
:104af0000d003e00006921000b0037000000e000bf
:104b00000f00340030002000100f9800b1c9b3002e
:104b10008ff1970081c04100c0692100e1cf5000b2
:104b200001003e0080692100ee009000b04878004e
:104b3000b06878001040780090409800f30037008b
:104b40000000e00005003a0022fb2f000f014100a9
:104b5000001978008001eb00e70037006022b80000
:104b60006033b8000800be000a01be0088ef0700ed
:104b70000000e00001003d000bf0a200705927008a
:104b80009f9897000088b900026a2800130020004f
:104b9000f2080700640650009c9f9f0013003b0032
:104ba00063061600c0ff2f00000666000c02ea0034
:104bb000949f9f000d6a21000800be000a01be00fc
:104bc000070037000c08a300030032003d02be00be
:104bd0002d03be00eaf007000c86d100e8864600ef
:104be0000c00e000f7ff3c00180037000c00e0006c
:104bf00018003200c0ff2f00000666009c9f9f0037
:104c00000d6a21006000b8000200200003ff2300ad
:104c1000070037000c08a300030032003d02be006d
:104c20002d03be00d6f007000c86d100e8864600b2
:104c30000c00e000f7ff3c000002be000203be00d3
:104c40000800be000a01be005bef07000004be00c2
:104c50000205be00de08900060c6b3008ff2970028
:104c600080cf5200040032006000200062c4b30014
:104c700082cf520002003a001f9b97006a00430057
:104c800081004000f1b79f00f38f50000200340014
:104c900037012000f7b79f0000c3b300c0779f0023
:104ca00056fb2f000f0343000e007800a0b79f00b3
:104cb000060778003e0037000800be000a01be006b
:104cc00095f607000006be00ffb09700e880500090
:104cd000f1b79f004240a9000d0034000c00be0057
:104ce000b9f607000002be000203be000800be00c5
:104cf0000a01be0069f307006022b80046782d0063
:104d0000771924009ef007000004be000205be00d3
:104d1000e80047008e0020000802be000a03be0023
:104d2000b4b79f00c5b79f00d6b79f00e7b79f00f5
:104d30000c01be00010478000c003700a400200024
:104d400005002000c0fd2f000f004000b604070042
:104d50006fa89700ffa897000fb197009fb1970029
:104d600005c3b300056441000001be00e00f51001f
:104d7000e08f5900030034000e07e900e10f4700ff
:104d8000eeff3a00880078003fb49700cfb4970058
:104d90005fb59700efb597000200370000c3b3007e
:104da000806078000e07e900fcff3b006887400048
:104db0007fb397000600e000070034006022b800cf
:104dc0006033b8000800be000a01be00f5ee07001f
:104dd0000000e000b8ff3c000e0378002fb79700fa
:104de00051fb2f008f804000010353009f9b9700d1
:104df00067804300909f9f00020037000603e90090
:104e00000000e900010178008200780003c3b300cc
:104e1000b1cf1100f9ff3200909f9f00de09900092
:104e200061c6b3000ff29700814f520003003200b9
:104e300061c4b300814f520002003a000000e80054
:104e40000a0037001000200051c6b3008ff297000f
:104e500081cf5200050032000540780050c4b200f6
:104e60000080fb000000e9004f00de0083014000ed
:104e7000868f510001003400860178000300e000b5
:104e80001d00350000c3b300868f510006003d00b1
:104e900062c279006940400041c3b300814f5200b3
:104ea00001003c00694050008300e900810041009e
:104eb00001003700840178000302e9000103780053
:104ec000a142780080cf5200faff320091c3b300b4
:104ed000814f500001003a00054be8000400e0005b
:104ee00005003d000201e9008301e8001f9b9700d7
:104ef0000603e800969f9f008ff397008700fb0052
:104f00001f9a97000e007800060007004f077800f0
:104f10004f06be004f05be004f04be002f04b10077
:104f200000000600f0874700889fbe008a9fbe00f1
:104f30008c9fbe008e1f78000004780081447800aa
:104f40000205be00040678000b00e00002003c00f1
:104f50001b002000aa84210060c6b30080cf54004b
:104f60000e00320060c4b30080cf54000b0032004a
:104f700070c6b30080cf54000300320070c4b30089
:104f800080cf54009a003a00e40f46007f003500bd
:104f900058089000800f56007c003d000c06e80089
:104fa00060c6b30080cf54001000320060c4b3006c
:104fb00080cf54000d003200081090000038a3008c
:104fc00004003a0058089000808f550001003d0011
:104fd0005b0c9800580890000c005000500c980092
:104fe00002003b000000eb00500c980018089000f5
:104ff000e80090000c00e00026003c0002c3b30073
:10500000827078000000e800100c9800d80890002a
:105010000100e00003003c00881090000138a3006c
:1050200005003200e8009000e2c2b3008270780010
:105030000000e800100c9800580890008c00ea006e
:10504000810f500001003d000006ea008c00ea00dc
:10505000210c9800000646005c0c98008b0f56004f
:10506000010034000b0678003c0c9800e80090002a
:1050700018089000008040000c0178008a00780039
:105080002cf70700580890000c0650004c0c9800b4
:10509000a90037008c8f550018003d0000804000ab
:1050a0000b0178008a00780022f7070018089000aa
:1050b00000804500100c98008b0556002b0c9800c2
:1050c000d80890000100e00003003c008810900028
:1050d0000138a30006003200e8009000e2c2b300ed
:1050e00082707800380890000000e800300c9800ca
:1050f00058089000400c98008f0037000080400056
:105100000c0178008a0078000af707001808900060
:1051100000004600100c98008c855500d8089000bf
:105120000100e00003003c00881090000138a3005b
:1051300005003200e8009000e2c2b30082707800ff
:105140000000e800100c980058089000808f55006f
:105150000100340080057800e800900018089000f5
:10516000008040008c0045000b017800f1f607003c
:10517000180890000b004000100c98005808900090
:105180008b0550002b0c98006b00370070c6b300e5
:1051900080cf54000300320070c4b30080cf5400ad
:1051a00013003a0058089000808f550004003d001d
:1051b000081090000038a30001003a005b0c980032
:1051c000580890000000e900500c980002003b00d5
:1051d0000000eb00500c980070c6b30080cf540064
:1051e00002003a0059c6b3000100370059c4b300a9
:1051f00018089000e80090009a7078000000e8001d
:10520000100c9800d80890000100e00003003c005a
:10521000881090000138a30005003200e8009000db
:10522000e2c2b300827078000000e800100c980021
:10523000580890000000e000100034008b05e900e1
:10524000808f55000100340080057800e800900050
:1052500018089000008040008a00e8000b017800e8
:10526000b4f60700180890000b004000100c9800de
:10527000580890008b0550002b0c9800e800900017
:105280001808900000804000095878000007e800e6
:105290000c00e00004003500b1c2b3000148780002
:1052a0008e04780004003700d1c2b30001487800b2
:1052b0008e0478000c06ea007d8557008006eb001e
:1052c00009003700a20020008c007800728057008f
:1052d000730207007fb097008fb89700016d7800c8
:1052e000000678008d06e8000c00e000f5ff3c00a9
:1052f0000d00e00009003a008e04780000c3b300fe
:10530000805c7800050037008d06e900fc805700be
:1053100061c07e0002c3b300825c40000d00e0006b
:10532000f9ff3c00e8009000180890000080400061
:1053300080845400390c98000810900074006000bc
:10534000f00f50000e003a0098089000780090008e
:1053500000804000a808900001004000b8089000bc
:1053600001004000c808900001004000f8089000cb
:10537000810f500002003d0000805000000c98009a
:105380004f0778004f06be004f05be004f04be0019
:105390000f01b100000006002f04b000889fbe007e
:1053a0008a9fbe008c9fbe008e1f78000007780089
:1053b00081f79f003e04be002e05be005e089000ef
:1053c0000000e00002003d0060002000500f980047
:1053d0008e00780020fb2f000f00400036fa0700f7
:1053e000e20f50000a003a0030002000100f980031
:1053f000b1c9b3000ff0970081404000c06e21009a
:10540000e1cf50000d003e00806e21000b00370000
:105410000000e0000f00340030002000100f980062
:10542000b1c9b3000ff1970081404100406f2100e6
:10543000e1cf500001003e00006f2100ee0090001f
:10544000b0487800b068780010407800904098002c
:10545000f30037000000e00005003a0022fb2f00b7
:105460000f014100001978008001eb00e7003700d0
:105470006022b8006033b8000800be000a01be0018
:1054800043ed07000000e00001003d000bf0a2002a
:10549000705927009f9897000088b900026a280079
:1054a00013002000ad060700640650009c9f9f007b
:1054b00013003b0063061600c0ff2f0000066600c5
:1054c0008c01ea00939f9f008d6f21000800be00b1
:1054d0000a01be00070037000c08a30003003200d9
:1054e0003d02be002d03be00a5ee07000c86d100d4
:1054f000e88646000c00e000f7ff3c00180037008b
:105500000c00e00018003200c0ff2f00000666000b
:105510009c9f9f008d6f21006000b800020020005a
:1055200003ff2300070037000c08a300030032002c
:105530003d02be002d03be0091ee07000c86d10097
:10554000e88646000c00e000f7ff3c000002be00c9
:105550000203be000800be000a01be0016ed0700ef
:105560000004be000205be00de08900060c6b30065
:105570000ff29700804f52000400320060002000bc
:1055800062c4b300824f520002003a009f9a970013
:105590006a80420081004000f1b79f00010378005b
:1055a000f30f53000200340037012000f7b79f00cb
:1055b00000c3b300c0779f0056fb2f000f034300ca
:1055c0000e007800a0b79f00060778003d00370066
:1055d0000800be000a01be004ff407000006be002e
:1055e0007fb1970068015100f2b79f004240a900c7
:1055f0000c00340074f407000002be000203be0079
:105600000800be000a01be0024f107006022b800b5
:1056100046782d007719240059ee07000004be00db
:105620000205be00e80047008e0020000802be0010
:105630000a03be00b4b79f00c5b79f00d6b79f004e
:10564000e7b79f000c01be00010478000c00370092
:10565000a400200005002000c0fd2f000f00400026
:10566000710207006fa89700ffa897000fb197007d
:105670009fb1970005c3b300056441000001be005f
